:020000041008E2
:4000000000780408EB0208100D00000051030810510308105103081051030810000000000000000000000000000000004D0308104D030810000000004D0308104D030810DA
:400040004D0308104D0308104D0308104D0308104D0308104D0308104D0308104D0308104D0308104D0308104D0308104D0308104D0308104D0308104D0308104D03081000
:400080004D0308104D0308104D0308104D0308104D0308104D0308104D0308104D0308104D0308104D0308104D0308104D0308104D0308104D0308104D0308104D030810C0
:4000C0004D0308104D0308104D0308104D0308104D0308104D0308104D0308104D0308104D0308104D0308104D0308104D0308104D0308104D0308104D0308104D03081080
:400100004D0308104D0308104D0308104D0308104D0308104D0308104D0308104D0308104D0308104D0308104D0308104D0308104D0308104D0308104D0308104D0308103F
:400140004D0308104D0308104D0308104D0308104D0308104D0308104D0308104D0308104D0308104D0308104D0308104D0308104D0308104D0308104D0308104D030810FF
:400180004D0308104D0308104D0308104D0308104D0308104D0308104D0308104D0308104D0308104D0308104D0308104D0308104D0308104D0308104D0308104D030810BF
:4001C0004D0308104D0308104D0308104D0308104D0308104D0308104D0308104D0308104D0308104D0308104D0308104D0308104D0308104D0308104D0308104D0308107F
:400200004D0308104D0308104D0308104D0308104D0308104D0308104D0308104D0308104D0308104D0308104D0308104D0308104D0308104D0308104D0308104D0308103E
:400240004D0308104D0308104D0308104D0308104D0308104D0308104D0308104D0308104D0308104D0308104D0308104D0308104D0308104D0308104D0308104D030810FE
:400280004D0308104D0308104D03081010B5054C237833B9044B13B10448AFF300800123237010BD844902080000000054510810084B10B51BB108490848AFF300800848D9
:4002C000036803B910BD074B002BFBD0BDE81040184700BF00000000884902085451081050430208000000007047FFF7FDFF72B6104C114DAC4209DA21686268A368043B81
:40030000A2BFC858D050FAE70C34F3E70B490C4A00209142BCBF41F8040BFAE709480A490860BFF34F8F00F0FBF900F0D5F900F0CDF8FEE758510810705108108449020897
:40034000D44B02080040020808ED00E0FEE7FEE700B504207146084202D0EFF3098001E0EFF30880043001F04BFAFEE70F2800F2A980DFE800F008121C26303A444E58629F
:400380006C76808A949E504B01225A6002225A6004225A6008225A6070474B4B01229A6002225A6004225A6008225A607047464B01225A6002229A6004225A6008225A60F2
:4003C0007047414B01229A6002229A6004225A6008225A6070473C4B01225A6002225A6004229A6008225A607047374B01229A6002225A6004229A6008225A607047324B52
:4004000001225A6002229A6004229A6008225A6070472D4B01229A6002229A6004229A6008225A607047284B01225A6002225A6004225A6008229A607047234B01229A6024
:4004400002225A6004225A6008229A6070471E4B01225A6002229A6004225A6008229A607047194B01229A6002229A6004225A6008229A607047144B01225A6002225A6050
:4004800004229A6008229A6070470F4B01229A6002225A6004229A6008229A6070470A4B01225A6002229A6004229A6008229A607047054B01229A6002229A6004229A60FB
:4004C00008229A60704700BF8004324010B582B062B601F031FA154B1868002302221946406802F0B7FA1022114B5A6000241AE02046FFF73BFF0E4A106800F0010011683A
:40050000C1F340011368126801900091C3F38003C2F3C0022146074802F084FA42F2107001F044F90134012CE2DDDFE70C43020880043240744B081008B5012000F0D0FC50
:4005400008BD00BF704700BF5C4AD2F8803303F00F0303F1D00152F8212002F00702032A04D0042A05D092B9554914E0554A116811E003F1C002514951F8222002F01F0236
:40058000112A06D0132A04D04FF4FA4103E04E4901E04FF400418BBB484BD3F8902502F00100D3F88825C2F30172D3F8883513F0405F07D0414BD3F88835C3F30173012B65
:4005C00002D102E0012300E0002303B108B9032A46D13A48D0F88025C2F31103D0F88425C2F30C02D0F88005C0F300600130B1FBF2F202FB03F2B2FBF0F131E0012B2FD19C
:400600002E4BD3F8402602F00100D3F80026C2F30172D3F8003613F0405F07D0274BD3F80036C3F30173012B02D102E0012300E0002303B108B9032A12D12048D0F800260A
:4006400002F07F02D0F80036C3F30423D0F80006C0F3044002FB01F2B2FBF3F2B2FBF0F1164BD3F88033C3F3011321FA03F215494A601648D0F89030C3F307230133006933
:40068000000E0130B2FBF0F08860B2FBF3F3CB600B6103F5742202F23F220D48A0FB0202C2F387420A7503F2E7330A4AA2FB03239B098B61DB03CB61704700BF00002640EC
:4006C00000127A008C42020800366E010000214083DE1B43D34D621008B50D4801F0F4F8FFF730FFFFF730FF00221146042000F0BFF9084800F052FA074B1B6893F8513054
:4007000013B1064800F0BAFA00F0FCF808BD00BF944E0810A0490208944B0208984B081008B501F0CAF8074AD2F8883043F47003C2F88830BFF34F8FBFF36F8F01F0C1F881
:4007400008BD00BF00ED00E010B504462146034800F006FC0028F9D010BD00BF00006640054BD3F80833C3F30803002BF8D0024BD3F84003704700BF000066401F4B98428D
:400780002DD00CD840282ED003D8E8B1102828D02FE0802829D0B0F5807F28D029E0184B984228D006D8B0F1204F0DD0154B984212D01EE0144B98420AD00133984209D0E5
:4007C000023B984215D101E0002070470F4870470F4870470F4870474FF4A0007047074870470D4870470D4870470D487047034870470C4870474FF4A40070470600520053
:40080000010000F0090000A0040000F0010052000200520003005200010050000200500005005200FF00520038B5124B1B6893F83130012B04D840F2C3110F4800F0D0FF06
:400840000C4B1D682A6AB5F8B03013442C46D5F8B420D358002B0BDB084B1868FFF78EFF6B6801229A6063689B68002BFBD138BD034838BD944B0208D44B0810204B020800
:40088000020050001A4B186128B102230370FF23437000234380174B1B6893F850202AB300B583B0B3F93830ADF80030002301931149684600F040FFBDF90030002B08DB6C
:4008C000590903F01F03012202FA03F30B4A42F82130084B1B6893F8513023B102220849012000F077FA03B05DF804FB704700BF204B0208944B0208C143020800E100E035
:400900007944020808B50248FFF7BCFF08BD00BF344B020838B50B4B1B68D3F8B4301B58002B0DDA0D4604460B0C1B0423B140F2D521054800F054FFA9B26160002038BDA1
:40094000024838BD944B0208144C081001008A0038B50368002B01DA002300E0094B73B90D460446C2600B0C1B0423B140F2BB21054800F035FFA9B2A160002038BD014869
:4009800038BD00BF01008A00144C081038B504460D4619B99921084800F022FF074B1B68D3F8B4301B59002B03DAE3682B60002038BD034838BD00BF544C0810944B02087E
:4009C00001008A00254B1B6893F8313083423AD900293AD00B6813F01F0F38D170B50D4604461E4B1B6893F83130984204D340F2C3111B4800F0F4FE184B1B68186AB3F82C
:400A0000B03004FB0304174E34602A68D2080021686801F08DFB00212046FFF77BFF346825B940F293310E4800F0DAFE2A4600212046FFF78DFF60B900210A4B1868FFF7FE
:400A400069FF40B970BD084870470748704706487047064870BD054870BD00BF944B0208144C0810384B020803018A0001018A0010B504461346B2B9A9B9124B1B6893F87A
:400A80003130984204D340F2C3110F4800F0A8FE0C4B1B681A6AB3F8B03004FB03240B4B1C60002010BD43B149B1084A51609360111D2046FFF786FF10BD054810BD04483D
:400AC00010BD00BF944B0208144C0810384B020803018A002DE9F0411B4B1B68DC68236883422CD90D464609A0EB4610012303FA00F819B900F0E1FE074600E00027124B37
:400B000018680368002B01DA002300E00F4B83B9626852F8263018EA030F05D023EA080342F82630002400E0094C0021FFF7F2FE00E0084C25B9384600F0C3FE00E0064C5D
:400B40002046BDE8F08100BF384B020801008A00020188000301880004018A000B4B1B68DB681A6882420CD94109A0EB4110012202FA00F05B6853F82130184203D0044828
:400B80007047044870470448704700BF384B02080101880004018A0000018800024B1B680BB9014B18607047444B02082DE9F8430446884691461D46089F2C4B1B681BB9CA
:400BC000B5212B4800F00CFE284B1B682C2000FB04F01C18EEB21E50C5F3072363602D0CA560244B1B6893F831309E4204D340F2C311214800F0F4FD1E4B1B68196AB3F85D
:400C0000B02006FB02162661666893F832309E4204D340F2DF11184800F0E2FD154B1B681D6A803605EB46156561A668330C1B0423B14FF4FF71104800F0D2FD330C1B04E8
:400C400023B140F2FF110C4800F0CAFDB3B243EA0646AE60C4F81C90C4F820800023A36117B1B7F90030A381BDE8F883444B0208944C0810944B0208144C0810F0B58FB0BA
:400C8000044618B95221274800F0AAFDA369072B03D95621234800F0A3FDE36A1BB95821204800F09DFD236B1BB959211D4800F097FD07AD04F114060FCE0FC537682F6021
:400CC00002AD26460FCE0FC533682B60164B1B68B3F93620079B1344ADF83030089B0D93A26AE16A0CAD00953B460A98FFF75EFF00210091069B0A460598FFF757FF216BA8
:400D0000284600F019FDBDF93030002B08DB590903F01F03012202FA03F3044A42F821300FB0F0BD944C0810944B020800E100E0F8B506460F461D4614461AB9FD211F4845
:400D400000F04EFD1E4B1B681BB9FE211B4800F047FD1B4B1B682C2101FB063001FB07314B68012202FA03F31B04466802FA06F60269EAB18F69EFB91268002A01DA002252
:400D800000E0104AC2B92288134323600369DC6001238B614D620469330C1B0423B140F2BB21094800F01CFDB2B2A2600020F8BD0648F8BD0648F8BD0548F8BD944C081052
:400DC000444B020801008A00144C081004028A0007028A00F8B505460F4616460E4B1B6823B94FF4AF710D4800F0FAFC0A4B1B682C2404FB0534236A23B94FF4B1710748B8
:400E000000F0EEFCE369B34204D9236A43F826700020F8BD0248F8BD444B0208944C08100A028A0070B582B000230193044620B940F2D111284800F0D3FC236923B94FF442
:400E4000E971254800F0CCFC636923B940F2D311214800F0C5FC236A23B94FF4EA711E4800F0BEFC6369DD682A0C20D012041A601B682069194B1B68D3F8B430C358002B55
:400E800015DA01A9FFF782FD60B9019803681E0CDBB2E269934206D2226A52F8233013B1984700E0002631462069FFF733FDADB275B16369ADB21D601B68636A1BB1984738
:400EC0000023636202E0A36A03B198470023A36163691B6802B070BD944C0810944B020810B50446074B1B6823B940F2B111064800F076FC034B1B682C2000FB0430FFF7AC
:400F000091FF10BD444B0208944C081010B4D0F8003303F00F03072B06D900230DE0D0F84043CC54013300E000239342F7D306E0D0F8404321F8134001339342F8D35DF8D7
:400F4000044B704710B51446D0F80833C3F308039A4200D31C462246FFF7D8FF204610BD036813F4006F01D0802200E04022D0F80832C3F30803934203D0C0F840120120E3
:400F800070470020704700BF10B4D0F8003203F00F03072B06D900230DE0CC5CC0F84042013300E000239342F7D306E031F81340C0F8404201339342F8D35DF8044B7047FD
:400FC00010B51446036813F4006F01D0802200E04022D0F80832C3F30803D31AA34200D81C462246FFF7D0FF204610BD2DE9F84305460C46036813F4006F02D04FF08008A5
:4010000001E04FF04008D5F8007207F00F07A26A012A19D9D4F82490E262561EB9F1000F00D026B940F27351254800F0D9FB324649462846FFF7C4FFA36A1B1AA362072F61
:4010400000D9400048446062D5F80832C3F30803984533D0A36A012B30D10023A362072F02D8636A1E7801E0636A1E8800F025FCC5F840624FF40073C5F8803FD5F8803F0A
:4010800000F01FFCD5F8883F23F4007222F0010242F4007623F4EE6323F0030323B140F23641084800F09CFBC5F8886F236843F002032360236B0BB101209847BDE8F8830E
:4010C000D44C0810144D08102DE9F04105460C46036813F4006F01D0802600E040267608A769D4F81C8017B1B8F1000F04D14FF49961314800F074FB424639462846FFF7F2
:4011000021FF236A03442362E3691B1AE36173BBA368FBB1E3689E4201D8013E00E05E1E2B6813F4006F01D0802300E040239E4204D34FF42371214800F052FBD5F80433F5
:4011400023F0FF03F6B21E43C5F804630123C5F8C83F02E00023C5F8C83F636823F001036360236B33B304209847BDE8F081A169D5F8002302F00F02072A00D940000844B7
:40118000A0619E4216D95C1E2B6813F4006F01D0802300E040239C4204D34FF42371074800F01EFBD5F8043323F0FF02E3B21343C5F80433BDE8F081D44C0810144D081083
:4011C000002800F0A48170B50546002900F0A18116460C460B78022B03D93F21A24800F0FFFA637B023BDBB2062B03D940219E4800F0F6FAA37B3BB1022B05D0032B03D0B1
:401200004121994800F0ECFA94F82130012B03D94221954800F0E4FA94F82830012B03D94321914800F0DCFA2378012B06D86368083B082B94BF0023012307E0A37F2BB14E
:401240006368013B062B94BF002301231BB14521854800F0C5FAA368053B042B03D94621814800F0BDFA6369FF2B03D947217E4800F0B6FAA369FF2B03D948217A4800F0F4
:40128000AFFAA37C6BB1237833B9A368092B05D1A37B2BB1012304E0012302E0012300E000231BB14A21704800F09AFA636B23F4366323F00D031BB14C216B4800F090FA05
:4012C000E36B23F4EE6323F003031BB14D21664800F086FA2378022B01D1A37F13B16268013A00E00022237F13B14FF4803100E00021A368082B02D84FF4006300E0002324
:401300000B4302F00F02134343F000732B60226B2B6813F4006F01D0802300E040239A4203D36221504800F05BFAA26B2B6813F4006F01D0802300E040239A4203D3632173
:40134000494800F04DFA626A2B6813F4006F01D0802300E040239A4203D36421424800F03FFA23781B0603F040732B64637F0BB1402200E00022A37C13B14FF4806300E053
:4013800000231343227C12B14FF4807200E000221343627C12B14FF4007200E000221A43E36A013B1B0403F470231343627B013A02F007021343A27B120102F03002134376
:4013C000AB64237B13B14FF4807200E00022E37B23B92378022B03D1012302E0012300E0002313B14FF4007300E000231A43A368013B03F00F031343C5F80033227DA3692B
:401400001B0403F47F031343C5F81033E26AD5F8003303F00F0303339A4201D3102A03D97A21114800F0DCF9E37F23B12378012B03D0002302E0002300E0012313B14FF4B5
:40144000807200E00022637B013B03F007031A43A37B1B0103F0300313436B64237B2BB14FF4807203E000BF584D08100022A368013B03F00F0313432278012A02D14FF4D2
:40148000803200E000221343C5F8003294F83030C5F8043394F8203013B14FF0007200E0002294F82130012B02D14FF0807300E00023134394F82820012A02D14FF48032D2
:4014C00000E00022134394F8242013432B6594F83830C5F80432636B23F4926323F002031B051B0DC5F8C83FE36B23F08C035B055B0DC5F8883F76B1002070603060B06006
:40150000F0603062F0623063044B736370BD04487047034870BD002070BD00BFEFCDAB000160AA000B694A69934202D34869181A7047CA684869101A184470472DE9F041C7
:4015400007460D46036813F4006F02D04FF0800801E04FF040084FEA5808D7F80863C6F308062C6926E00134EB689C4200D100246B699C420FD12B6B0BB1082098476B699A
:401580009C4208D10023C7F8C83F0CB1013C13E0EC68013C10E0D7F84023D7F8003303F00F03072B02D8AB681A5502E0AB6823F81420013E002ED6D12C61EC682946384630
:4015C000FFF7B0FF201A804519D908B1441E00E000243B6813F4006F01D0802300E040239C4204D34FF42371064800F0F9F8D7F8040320F0FF03E0B21843C7F80403BDE86B
:40160000F08100BF144D081038B504460D46D0F8003E13F0080F35D0D0F8CC3F13F448730AD04A681A434A60C0F8C03FD0F8C03F0B6B0BB110209847D4F8CC3F13F4006F1E
:4016400009D06B6843F400636B604FF40063C4F8C03FD4F8C03FD4F8CC3F13F0010F11D0EB6923B129462046FFF72EFD05E0AB681BB129462046FFF761FF0123C4F8C03F76
:40168000D4F8C03FD4F8003E13F0040F2ED0D4F88C3F13F4A0630AD02A681A432A60C4F8803FD4F8803F2B6B0BB120209847D4F88C3F13F0010F08D029462046FFF796FCF7
:4016C0000123C4F8803FD4F8803FD4F88C3F13F4007F0BD00022C4F8882F2B6823F001032B60EA622B6B0BB10220984738BD00BF38B50D4B9A680D4B9A420FD10D460446B3
:4017000021B940F237110A4800F06AF804F11003064A52F8230042F8235038BD1030054B53F8200038BD00BF00ED00E000400208984D08100000081048B338B504460D46EA
:401740004368072B03D93221134800F049F8B4F900306268002B08DB5201D2B203F1604303F5614383F8002305E003F00F035201D2B20A49CA540A4B9A680A4B9A4208D1E1
:401780002946B4F90000FFF7B3FF002038BD06487047002038BD00BF984D081014ED00E000ED00E0004002080100560010B5044605E0084B186800F077F8A4F50044B4F57F
:4017C000004FF6D8044B186800FB04F000F06CF810BD00BFA8420208A442020801BEFEE738B50D46044C18220146204601F0E4F9A5610020FFF7F2FFF0480208FEE700BF6E
:4018000008B50268254BDA6142681A6282685A62C2689A620269DA6242691A6382695A63C2699A631E4A916AD963D16A1964516A5964516B9964926BDA64F1EE103A13F056
:40184000900F27D0026A154B1A65426A5A65826A9A65C26ADA65026B1A66426B5A66826B9A66C26BDA66026C1A67426C5A67826C9A67C26CDA67026DC3F88020426DC3F822
:401880008420826DC3F88820C26DC3F88C20026EC3F89020FFF7B2FF08BD00BFF048020800ED00E0000000000230800803D001300238FCD100BF00BF7047EFF3108072B6F3
:4018C000704780F310887047014B1860704700BF944B020870B539B900240AE015F8010BFEF732FF013402E016460D460024B442F4DB204670BD00BF70B561B900240FE095
:40190000FEF72EFFC0B2287001340A2808D00D2806D0013502E016460D460024B442EFDB204670BD08B502490248FFF76DFE08BD984B02080000664008B5114B1B785BB928
:40194000104A11491148FFF73BFC11491148FFF7F3FE01220A4B1A700E4BB3F90030002B08DB590903F01F03012202FA03F30A4A42F82130054A136843F00043136008BD6B
:40198000844B0208984B02084C4F08100000664025190810CC4B081000E100E081F0004102E000BF83F0004330B54FEA41044FEA430594EA050F08BF90EA020F1FBF54EAD5
:4019C000000C55EA020C7FEA645C7FEA655C00F0E2804FEA5454D4EB5555B8BF6D420CDD2C4480EA020281EA030382EA000083EA010180EA020281EA0303362D88BF30BDF0
:401A000011F0004F4FEA01314FF4801C4CEA113102D0404261EB410113F0004F4FEA03334CEA133302D0524263EB430394EA050F00F0A780A4F10104D5F1200E0DDB02FA60
:401A40000EFC22FA05F2801841F1000103FA0EF2801843FA05F359410EE0A5F120050EF1200E012A03FA0EFC28BF4CF0020C43FA05F3C01851EBE37101F0004507D54FF0F3
:401A8000000EDCF1000C7EEB00006EEB0101B1F5801F1BD3B1F5001F0CD349085FEA30004FEA3C0C04F101044FEA445212F5800F80F09A80BCF1004F08BF5FEA500C50F1C7
:401AC000000041EB045141EA050130BD5FEA4C0C404141EB010111F4801FA4F10104E9D191F0000F04BF01460020B1FA81F308BF2033A3F10B03B3F120020CDA0C3208DD9B
:401B000002F1140CC2F10C0201FA0CF021FA02F10CE002F11402D8BFC2F1200C01FA02F120FA0CFCDCBF41EA0C019040E41AA2BF01EB0451294330BD6FEA04041F3C1CDA03
:401B40000C340EDC04F11404C4F1200220FA04F001FA02F340EA030021FA04F345EA030130BDC4F10C04C4F1200220FA02F001FA04F340EA0300294630BD21FA04F0294659
:401B800030BD94F0000F83F4801306BF81F480110134013D4EE77FEA645C18BF7FEA655C29D094EA050F08BF90EA020F05D054EA000C04BF1946104630BD91EA030F1EBF33
:401BC0000021002030BD5FEA545C05D14000494128BF41F0004130BD14F580043CBF01F5801130BD01F0004545F0FE4141F470014FF0000030BD7FEA645C1ABF19461046A9
:401C00007FEA655C1CBF0B46024650EA013406BF52EA033591EA030F41F4002130BD00BF90F0000F04BF0021704730B54FF4806404F132044FF000054FF0000150E700BFF4
:401C400090F0000F04BF0021704730B54FF4806404F1320410F0004548BF40424FF000013EE700BF42004FEAE2014FEA31014FEA02701FBF12F07F4393F07F4F81F0605188
:401C8000704792F0000F14BF93F07F4F704730B54FF4607401F0004521F0004120E700BF50EA010208BF704730B54FF000050AE050EA010208BF704730B511F0004502D52C
:401CC000404261EB41014FF4806404F132045FEA915C3FF4DCAE4FF003025FEADC0C18BF03325FEADC0C18BF033202EBDC02C2F1200300FA03FC20FA02F001FA03FE40EA05
:401D00000E0021FA02F11444C1E600BF70B54FF0FF0C4CF4E06C1CEA11541DBF1CEA135594EA0C0F95EA0C0F00F0DEF82C4481EA030621EA4C5123EA4C5350EA013518BFA1
:401D400052EA033541F4801143F4801338D0A0FB02CE4FF00005E1FB02E506F00042E0FB03E54FF00006E1FB03569CF0000F18BF4EF0010EA4F1FF04B6F5007F64F54074E2
:401D800004D25FEA4E0E6D4146EB060642EAC62141EA55514FEAC52040EA5E504FEACE2EB4F1FD0C88BFBCF5E06F1ED8BEF1004F08BF5FEA500E50F1000041EB045170BD68
:401DC00006F0004646EA010140EA020081EA0301B4EB5C04C2BFD4EB0C0541EA045170BD41F480114FF0000E013C00F3AB8014F1360FDEBF002001F0004170BDC4F1000450
:401E0000203C35DA0C341BDC04F11404C4F1200500FA05F320FA04F001FA05F240EA020001F0004221F0004110EBD37021FA04F642EB06015EEA430E08BF20EAD37070BD15
:401E4000C4F10C04C4F1200500FA04F320FA05F001FA04F240EA020001F0004110EBD37041F100015EEA430E08BF20EAD37070BDC4F1200500FA05F24EEA020E20FA04F305
:401E800001FA05F243EA020321FA04F001F0004121FA04F220EA020000EBD3705EEA430E08BF20EAD37070BD94F0000F0FD101F00046400041EB010111F4801F08BF013CD8
:401EC000F7D041EA060195F0000F18BF704703F00046520043EB030313F4801F08BF013DF7D043EA0603704794EA0C0F0CEA135518BF95EA0C0F0CD050EA410618BF52EAD1
:401F00004306D1D181EA030101F000414FF0000070BD50EA410606BF1046194652EA430619D094EA0C0F02D150EA013613D195EA0C0F05D152EA03361CBF104619460AD12F
:401F400081EA030101F0004141F0FE4141F470014FF0000070BD41F0FE4141F4780170BD70B54FF0FF0C4CF4E06C1CEA11541DBF1CEA135594EA0C0F95EA0C0F00F0A7F881
:401F8000A4EB050481EA030E52EA03354FEA013100F088804FEA03334FF0805545EA131343EA12634FEA022245EA111545EA10654FEA00260EF000419D4208BF964244F115
:401FC000FD0404F5407402D25B084FEA3202B61A65EB03055B084FEA32024FF480104FF4002CB6EB020E75EB030E22BFB61A754640EA0C005B084FEA3202B6EB020E75EBB0
:40200000030E22BFB61A754640EA5C005B084FEA3202B6EB020E75EB030E22BFB61A754640EA9C005B084FEA3202B6EB020E75EB030E22BFB61A754640EADC0055EA060EC2
:4020400018D04FEA051545EA16754FEA06164FEAC30343EA52734FEAC2025FEA1C1CC0D111F4801F0BD141EA00014FF000004FF0004CB6E711F4801F04BF01430020B4F193
:40208000FD0C88BFBCF5E06F3FF6AFAEB5EB030C04BFB6EB020C5FEA500C50F1000041EB045170BD0EF0004E4EEA113114EB5C04C2BFD4EB0C0541EA045170BD41F48011A0
:4020C0004FF0000E013C90E645EA060E8DE60CEA135594EA0C0F08BF95EA0C0F3FF43BAF94EA0C0F0AD150EA01347FF434AF95EA0C0F7FF425AF104619462CE795EA0C0F39
:4021000006D152EA03353FF4FDAE1046194622E750EA410618BF52EA43067FF4C5AE50EA41047FF40DAF52EA43057FF4EBAE12E702440346934202D003F8011BFAE77047D9
:402140002DE9F04788B0002B149F1299109EDDF84CA01D4627F02007BBBF03F100431D4600232D231446B8BF1446462F0B7003D0452F03D1013601E0032300E0022307AA90
:40218000049206AA03928DE8480422462B4600F0B7FD472F804602D1119BDB0728D5462F08EB060911D198F80030302B0AD1002200232046294602F033FC18B9C6F1010653
:4021C000CAF80060DAF800309944002200232046294602F025FC08B9302202E0CDF81C9006E0079B994503D9591C07911A70F8E7079B159AC8EB03034046136008B0BDE833
:40220000F08773B503460029B8BF494203F8022BB4BF2D222B220929427019DD0DF1070216460A2591FBF5F405FB14113031092C02F8011D2146F5DC3031541E02F8011C7E
:40224000B4421A460AD214F8012B03F8012BF7E730241A46214402F8024B5970101A02B070BD00002DE9F04F91B00C46DDF8688016461F46054601F05BFC03680893184660
:4022800000F092FC00230E93D8F800300990073323F0070303F1080294F818A0D4F800B0C8F80020D3E90023C4E91223D4E9128929F000430B93CDF828804FF0FF32A74B6C
:4022C000DDE90A0102F0DEFBA0B94FF0FF32A34BDDE90A0102F0B8FB60B9002200234046494602F0A7FB10B12D2384F843309C4B9C4A0AE042464B464046494602F0C2FB7A
:40230000002800F09281984B984ABAF1470F8CBF90469846032323612BF0040323604FF000093DE0BAF1670F00F08A81BAF1470F00F08681236000210DF1330201936368AF
:4023400005900292009342464B460691CDF810A0CDF80CE02846FFF7F3FE0AF0DF03472B804600F08481BAF1650F0D9900F28D810139524604F150000D91FFF742FF0E9A14
:402380008318012A8146236100F37C812268D10700F178819DF8333013B12D2384F84330009733460FAA2146284600F09FF9013002D14FF0FF3096E123685A0501D423697B
:4023C00065E0BAF1650F40F2D58000220023D4E9120102F025FB78B30123654A31462846B8470130E5D00E9B0D9A9A420BDB2368D80708D423689B0740F111814FF0000874
:4024000004F1190906E1099B089A31462846B8470130CED04FF0000804F11A090E9B013B9845E7DA01234A4631462846B8470130BFD008F10108F1E70D9B002B29DC012395
:402440004B4A31462846B8470130B2D00D9B23B90E9B13B92368D907CCD5099B089A31462846B8470130A4D04FF0000904F11A0A0D9B5B42994509DA012352463146284654
:40248000B847013095D009F10109F1E70E9B4246A7E00E9AA36D9A42A8BF1A46002A914606DC4FF0000A29EAE97904F11A0B11E01346314642462846B8470130F1D178E7D5
:4024C00001235A4631462846B84701303FF471AF0AF1010AA36DC9EB03029245F0DB08EB03090D9A0E9B9A420FDB2368DA070CD40E9B0D9A9844C9EB08089B1A9845A8BFF5
:402500009846B8F1000F08DC0FE0099B089A31462846B8470130EBD14BE743464A4631462846B84701303FF444AF4FF0000928EAE87804F11A0A09E0012352463146284638
:40254000B84701303FF435AF09F101090D9A0E9B9B1AC8EB03039945EEDB4BE7FFFFEF7F944F0810984F08109C4F0810A04F0810A44F08100E9A012A01DCDB0738D501233B
:40258000424631462846B84701303FF412AF099B089A31462846B84701303FF40AAF00220023D4E9120102F03BFA20B14FF0000804F11A0A0EE00E9B08F10102013B19E00E
:4025C0000123524631462846B84701303FF4F1AE08F101080E9B013B9845F1DB4B4604F1500231462846B84701307FF403AFE0E60123424631462846B8470130EED1D8E692
:4026000001234A4631462846B84701303FF4D1AE08F10108E3680F9A9B1A9845F0DBE0680F9B9842B8BF18465DE06268531C0EA84BF480630DF1340E7FF474AE062201E0FF
:4026400012B90122626075E6002106910DF133018DE80C00236005904246CDF810A0CDF80CE002914B462846FFF76AFD80460D9BD81C02DB626893421DDDAAF1020A5FFA57
:402680008AFA70E60133236184E6BAF1660F14D10029636807DD216113B92268D2071DD501330B4419E013B92268D00701D5023313E0012311E04FF0670A0D9B0E9A93420D
:4026C00005DB22682361D10708D5013305E0002BD4BFC3F102030123134423610D9BA3654FF0000956E611B0BDE8F08F2DE9F04791461F460A698B68DDF820809342B8BFDF
:402700001346C9F8003091F8432006460C4612B10133C9F800302368990642BFD9F800300233C9F80030256815F0060510D104F1190A07E00123524639463046C047013025
:402740001AD00135E368D9F800209B1A9D42F1DB94F843302268003318BF012392060FD5E1185A1C302081F84300224494F8451082F84310023303E04FF0FF30BDE8F08739
:4027800004F1430239463046C0470130F4D02268D9F80050E36802F00602042A08BF5D1B2269A3680CBF25EAE57500259342C4BF9B1AED184FF000091A344D4509D001236B
:4027C000224639463046C0470130D5D009F10109F3E70020BDE8F0872DE9F04317460A7E85B06E2A984606460C460C9B01F1430E00F0AE8011D8632A22D009D8002A00F0A3
:40280000BB80582A40F0CA8081F84520834955E0642A1ED0692A1CD0C0E0732A00F0B08009D86F2A2ED0702A40F0B8800A6842F020020A603EE0752A24D0782A3AD0ADE096
:402840001A6801F14205111D1960136884F84230A8E021681A6811F0800F02D0111D196008E011F0400F02F10401196002D0B2F9003000E01368002B3CDA2D225B4284F897
:40288000432037E021681A6811F0800F02D0111D196007E011F0400F02F10401196001D0138800E01368227E5C496F2A14BF0A2208221BE078225A4984F8452022681868F1
:4028C00012F0800F00F104051D6003D1550601D5038800E00368D00744BF42F0200222601BB9226822F0200222601022002084F8430001E049490A226568A560002D08DB9F
:40290000206820F0040020602BB9002D7DD175460CE0002B79D07546B3FBF2F002FB1033CB5C05F8013D03460028F5D1082A0BD12368DA0708D5236962689A42DEBF302364
:4029400005F8013C05F1FF35C5EB0E0323612EE008681A68496910F0800F03D0101D1860136808E010F0400F02F104001860136801D0198000E0196000232361754616E03E
:402980001A68111D1960156862680021284601F03FF908B1401B6060636804E004F1420584F8422001232361002384F84330CDF800803B4603AA21463046FFF797FE01308C
:4029C00002D14FF0FF3026E023692A4639463046C0470130F5D023689B0710D5002504F1190907E001234A4639463046C0470130E7D00135E368039A9B1A9D42F2DBE0680E
:402A0000039B9842B8BF184605E00B7884F8423004F142058AE705B0BDE8F083A64F0810B74F08100FB40A4B13B51C6824B1A36913B9204600F0F2FF05AB049AA16801930B
:402A4000204601F0FBFC02B0BDE8104004B070470C4302082DE9F7431D464F4B1E6804460F46904626B1B36913B9304600F0D6FF4A4B9C4201D1746808E0494B9C4201D10E
:402A8000B46803E0474B9C4208BFF468B8F1020F04D0B8F1010F79D8002D77DB2146304600F052FF616B41B104F14403994202D0304601F0EDFB002363630023A361636086
:402AC000A3891B0603D52169304601F0E1FBA38923F44A6323F00303B8F1020FA3811ED001AB6A462146304601F026F8A3891843A0810DB9009D00E02FBB284601F07CF81F
:402B00000746D0B9DDF80090A94502D14FF0FF3006E0484601F070F8074678B9F6E70020A38943F00203A3810023A36004F1470323602361012363612AE0A946A38943F0AF
:402B40008003A3814D46B36913B9304600F066FFB8F1010F08BFA389276004BF43F00103A381A389276103F0080080B2656158B113F001034FF000001DBF6D42A060A56190
:402B8000A56008BF184603E0A06001E04FF0FF3003B0BDE8F08300BF0C430208D84F0810F84F081018500810034613F8012B002AFBD1181A0138704710B5034642B111F816
:402BC000014B03F8014B013A002CF7D11A4400E010BD934202D003F8014BFAE710BD2DE9F74F03690C699C42804600F38380013C01F114074FEA840E00F1140657F82450B2
:402C000006EB0E030193013556F82430B3FBF5F507EB0E09002D39D04FF0000A3846B446D34650F8042B93B205FB03A34FEA134A9BB2C3EB0B03120CBCF800B005FB02A24E
:402C400013FA8BF34FEA124A1FFA82FBDCF80020CBEB124202EB23429BB243EA024381454FEA224B4CF8043BDBD256F80E306BB9019B043B9E421A4602D3C8F8104005E05E
:402C80001268043B002AF8D1013CF3E7404601F028FA00282CDB013530464FF0000E57F8041BD0F800C08AB2C2EB0E03090C13FA8CF3C1EB1C4202EB23429BB243EA0243E4
:402CC000B9454FEA224E40F8043BE8D256F8242006EB840362B9043B9E421A4602D3C8F8104005E01268043B002AF8D1013CF3E7284600E0002003B0BDE8F08F0000000086
:402D00002DE9F04F456A97B08246239CCDE9022345B9102000F070FFCAF82400456085600560C560DAF82430196859B15A684A60012393408B60504600F0FAFFDAF82430BB
:402D400000221A60039BA04A002BBFBF01232360039B23F00043B8BF0393DDF80C80A4BF0023236028F000431B0D1B0593421DD1229A42F20F731360029B43B9934A944BD4
:402D8000C8F31300002814BF1846104600E09048249B002B00F04A85C37813B100F1080300E0C31C249A136000F040BDDDE90245002200232046294601F032FE074658B1BF
:402DC000229A01231360249B002B00F0228581481860013800F02ABD14AB019315AB009322462B46504601F0F7F9C8F30A56059056B1C5F3130343F07F51204641F4401144
:402E0000A6F2FF3611971DE0159B149E1E4406F23243202B0ADD029A06F21240C3F1400322FA00F008FA03F3184304E0C3F12000029B03FA00F0FEF7F3FE0123A1F1F8713A
:402E4000013E11930022644BFEF7ACFD58A3D3E90023FEF75BFF58A3D3E90023FEF7A4FD044630460D46FEF7EBFE55A3D3E90023FEF74CFF02460B4620462946FEF794FD6B
:402E800004460D4601F014FE0022834600232046294601F0CFFD58B15846FEF7D1FE02460B462046294601F0BBFD08B90BF1FF3BBBF1160F0DD8494901EBCB01DDE902236E
:402EC000D1E9000101F0D4FD30B10BF1FF3B002300E00123109300E01090149B9E1B731E089343BFC3F10009002308934FF00009BBF1000F07DB089BCDF834B05B44089378
:402F00000023099306E0CBF1000309930023CBEB09090D93209B092B27D8052BC4BF043B2093209BA3F10203CCBF00250125032B20D8DFE803F0060E0204012302E0012325
:402F400008E000230C93219B002B1CDD069398461EE000230C93219B5B4403F1010806934346012BB8BF012312E00125002320930C9501E001230C934FF0FF330693984634
:402F80000022122303E00123069398461A462192DAF8244000226260042101F114029A421ED86268013262604900F6E7AFF3008061436F63A787D23FB3C8608B288AC63F37
:402FC000FB799F501344D33F0000F07FC84F0810D14F0810A54F08100000F83F785008106168504600F06FFEDAF8243020601B680793B8F10E0F00F25D81002D00F05A81FF
:403000009DED027BBBF1000F8DED0E7B31DDA04A0BF00F0302EBC30393ED007B4FEA2B14E2068DED0A7B0CD59A4BDDE90E01D3E90823FEF795FF04F00F04CDE902010326C5
:4030400000E00226934D6CB1E30708D5DDE90A01D5E90023FEF75AFECDE90A01013664100835F0E7DDE90A23DDE90201FEF778FF20E0CBF1000404B3854B864D04F00F02BE
:4030800003EBC203D3E90023DDE90E01FEF73EFECDE9020124110023022654B1E70705D5D5E90023FEF732FE0136012364100835F3E71BB1CDE9020100E00226109BEBB1B2
:4030C000DDE902450022744B2046294601F0B2FCA0B1B8F1000F11D0069B002B40F3E6800BF1FF330A9300226C4B20462946FEF70DFE0136CDE90201069F02E0CDF828B092
:4031000047463046FEF79CFDDDE90223FEF7FEFD0022634BFEF748FC0446A1F15075CFB90022604BDDE90201FEF73CFC22462B46CDE9020101F09CFC002840F04182224690
:4031400005F10043DDE9020101F074FC002840F02E82ABE00C9A4E4B791E002A4AD003EBC103D3E9002300204F49FEF7F9FE22462B46FEF717FC079C05460E46DDE902011E
:4031800001F096FC1290FEF75BFD02460B46DDE90201FEF707FC129B303304F8013B2A463346CDE9020101F045FC002840F02183DDE9022300203849FEF7F4FB2A463346D2
:4031C00001F038FC002840F0D280079BE31ABB426CDA0022314B28463146FEF797FD002205460E462D4BDDE90201FEF78FFDCDE90201C3E703EBC10122462B46D1E90001E8
:40320000FEF784FD079BCDE91201DC191D46DDE9020101F04DFC0646FEF712FD303602460B46DDE90201FEF7BDFB05F8016BAC42CDE902014FF0000223D11B4BDDE9120109
:40324000FEF7B2FB02460B46DDE9020101F010FC002840F08C80DDE9122300201249FEF7A1FB02460B46DDE9020101F0E3FBE8B114F8013C302B04F1FF3240F0BA82144688
:40328000F6E7064BFEF742FDCDE90201BFE700BF78500810505008100000F03F0000244000001C40000014400000E03FDDE90E34CDE90234159B002B7CDBBBF10E0F79DC50
:4032C0008F4B03EBCB03D3E90067219B002B14DAB8F1000F11DC40F06C810022894B30463946FEF713FDDDE9022301F0B7FB45464646002840F05F8166E1079C32463B46CE
:40330000DDE90201FEF72CFE01F0D2FB0546FEF797FC32463B46FEF7F9FC0B460246DDE90201FEF73FFB05F1300E04F801EB079BC3EB040EF045CDE902012ED102460B469C
:40334000FEF732FB8046894602460B463046394601F070FB78B942464B463046394601F05FFB002800F04782E90704D443E2DDF828B000E01C4614F8012C392A04F1FF33A2
:4033800007D1079A9A42F5D1079930220BF1010B0A701A7801321A702DE200225A4BFEF7B5FC00220023CDE9020101F039FB0028A4D020E20C9A002A2DD0209A012A0ADC5A
:4033C000119A12B103F2334302E0149BC3F13603099D4C4615E0099B08F1FF35AB42BFBF099B0995EA1A0D9BB7BF9B185D1B0D930025B8F1000FB9BFC8EB090400234C4614
:403400004346089A01211A4450469944089200F02EFD064602E0099D0C9E4C465CB1089B002B08DDA342089AA8BF2346C3EB0909E41AD31A0893099B002B1DDD0C9BABB180
:4034400085B131462A46504600F0ACFD059A01460646504600F014FD05990746504600F067FC0597099B5A1B06D000E0099A0599504600F097FD05900121504600F0F7FC6D
:403480000D9B05465BB31A460146504600F08AFD209B012B054618DC029B83B9039BC3F3130373B9039B23F000473F0D3F054FB1089B013309F101090893012702E0002793
:4034C00000E0029F0D9B73B100E000272B6905EB8303186900F07EFCC0F1200004E0209B012BD9DD0D9F0120089B184410F01F000ED0C0F12003042B08DDC0F11C0008E0CB
:4035000078500810000014400000244006D018461C30089B0344814404440893B9F1000F05DD4A460599504600F08AFD0590089B002B05DD29461A46504600F081FD0546A8
:40354000109BEBB12946059800F0CBFD002817DA00230A220599504600F001FC0C9B05900BF1FF3B002B00F05881002331460A22504600F0F4FB069B002B064637DC33E0D8
:40358000B8F1000F2ADC209B022B27DDCDF81880069B83B929460522504600F0E0FB01460546059800F09DFD00280DDC03E03D4600E000252E46219B079C6FEA030B0AE0D7
:4035C000DDF828B03D463E46079B079A5C1C312313700BF1010BB0460026F7E00C9BCDF8188023B9079CB1E0209B022BD0DC002C05DD31462246504600F022FD06469FB1B4
:403600007168504600F05FFB326902320446920006F10C010C3000F04BFB01222146504600F00EFD804600E0B046029BDDF81C9003F00103089329460598FFF7D0FA314606
:40364000044600F13007059800F04BFD424602902946504600F061FDC36802463BB901460990059800F03DFD099A034600E0012311465046099300F05BFB099B4BB9209A67
:403680003AB9089A2AB9392F28D0029B002B1ADC1BE0029A002A04DB1AD1209AC2B9089AB2B9002B11DD01220599504600F0C8FC2946059000F015FD002802DC05D1FA07A0
:4036C00003D5392F0AD004F1310709F101040CE0002B09F101040BDD392F05D1392389F8003009F1010954E0013789F800706DE0079B069A04F8017CE31A9342A1463AD00F
:4037000000230A220599504600F029FB464505904FF000034FF00A023146504604D100F01EFB0646804686E700F019FB4146064600230A22504600F012FB80467BE70023D7
:403740000A220599504600F00AFB059029460598FFF745FA00F1300704F8017B079B069AE31A9342EBDB079B012AACBF9B180133B0469946002601220599504600F060FCE7
:403780002946059000F0ADFC002802DC15D1FB0713D54C4614F8013C392B04F1FF3209D1079B934204D10BF1010B3123079A02E01446EFE70133137008E04C4614F8013C82
:4037C000302B04F1FF3201D11446F7E72946504600F0AEFAB8F1000F0DD02EB1464503D03146504600F0A4FA4146504600F0A0FA01E0DDF828B00599504600F099FA002325
:40380000229A23700BF101031360249B1BB11C6001E008480AE0079808E0069B002B3FF7E1AE209B022B7FF7DDAEB1E617B0BDE8F08F00BFA44F08108A892DE9F0410546B2
:4038400010070C4659D44B68002B02DC0B6C002B17DDE66AAEB102F48052002392B22F682B600AB1606D15E0216A01232846B047411C0FD12B686BB11D2B01D0162B03D1B5
:403880002F600020BDE8F081A38943F04003A381BDE8F081A3895A0705D56368C01A636B0BB1236CC01A00230246E66A216A2846B047431CA38906D129681D293AD8214A07
:4038C000CA40D60736D500226260D9042269226004D5421C01D12B6803B96065616B2F600029CED004F14403994202D0284600F0CFFC00206063BDE8F0810F69002FC0D087
:4039000093070E6808BF4B690F6018BF0023C7EB06088B6002E00744C0EB0808B8F1000FAFDD43463A46216AA66A2846B0470028F1DCA38943F04003A3814FF0FF30BDE8E5
:40394000F08100BF0100402038B50B6905460C46DBB118B183690BB900F060F80C4B9C4201D16C6808E00B4B9C4201D1AC6803E0094B9C4208BFEC68B4F90C302BB1214632
:403980002846BDE83840FFF757BF002038BD00BFD84F0810F84F081018500810014900F0A9B800BF49390810002310B5044603604360836081814366C28103614361836195
:4039C000194608225C30FEF7B3FB054B6362054BA362054BE362054B2462236310BD00BF95460810B7460810EF4608101347081070B568234D1E5D430E4605F1740100F0F7
:403A000095FC044640B1002180E842000C30A06005F16802FEF78CFB204670BD836910B5044633BB8364C3640365124B124A1B688262984204BF0123836100F01FF8606059
:403A4000204600F01BF8A060204600F017F80022E06004216068FFF7A7FF01220921A068FFF7A2FF02221221E068FFF79DFF0123A36110BD904F08109D390810F8B51C4B82
:403A80001E68B369074613B93046FFF7C7FF4836B4687368013B04D4B4F90C507DB16834F8E733680BB13668F2E704213846FFF79FFF30600028F6D10C233B60F8BD4FF696
:403AC000FF73E3810123A38165662560A560656025616561A5610822294604F15C00FEF727FB6563A563A564E5642046F8BD00BF904F08102DE9F8438046894600F1480425
:403B0000002694B1A5686768013F0CD4AB89012B07D9B5F90E30013303D029464046C84706436835F0E72468EBE73046BDE8F883004870471043020870B50E46B1F90E1099
:403B4000002990B014461D4606DA00232B60B3891A060ED540230EE001AA00F0C3FE0028F3DB029A02F47042A2F500535A425A412A604FF480630020236010B070BD00000A
:403B80008B8973B59E0705460C4610D401AB6A46FFF7D2FF00990646284600F0C7FB68B9B4F90C309A0522D443F00203A38104F14703236023610123636118E00D4BAB62F5
:403BC000A389206043F08003A381009B6361019B20614BB1B4F90E10284600F095FE18B1A38943F00103A381A0893043A08102B070BD00BF9D390810024B0146186800F06E
:403C000095BB00BF0C430208000000000000000001F0FF01102A2BDB10F0070F08D010F8013B013A8B422DD010F0070F42B3F6D1F0B441EA012141EA014122F007047FF0F8
:403C400000070023F0E80256083C85EA010586EA010685FA47F5A3FA87F586FA47F6A5FA87F68EB9EED1F0BC01F0FF0102F0070232B110F8013B013A83EA010313B1F8D10F
:403C80000020704701387047002D06BF35460338073815F0010F07D1013015F4807F02BF013015F4C03F0130F0BC0138704700BF10B5431E0A44914204D011F8014B03F83F
:403CC000014FF8E710BD70B5456A04460E463DB91020FFF791FF6062456085600560C560656AEB6843B1636ADB6853F8260078B1026843F8262017E021220421204600F074
:403D0000B9FA636AE860DB68002BECD1002070BD012101FA06F56A1D9200204600F0AAFA0028F3D04660856000230361C36070BD70B5446A06460D463CB91020FFF75CFFE3
:403D40007062446084600460C4603DB1736A6A68DB6853F82210296043F8225070BD2DE9F0410D691F4606460C4601F1140E0023DEF8000081B202FB01710F0C000C02FB0E
:403D8000007089B2013301EB00419D424FEA10474EF8041BECDCD7B1A3689D4212DB616830460131FFF78FFF2269023204F10C01804692000C30FFF77BFF21463046FFF76F
:403DC000B7FF444604EB850301355F6125612046BDE8F081030C1B0413B90004102300E0002310F07F4F04BF0002083310F0704F04BF0001043310F0404F04BF8000023351
:403E0000002803DB420003D5581C70471846704720207047036813F007020BD0D90722D49A074BBF5B089B08036003604CBF01200220704799B209B91B0C102213F0FF0F10
:403E400004BF1B0A0832190704BF1B090432990704BF9B080232D90702D45B0805D00132036010467047002070472020704710B50C460121FFF727FF01224461026110BDFD
:403E80002DE9F74F14460A6923699A42B8BF0B468846BCBFA0461C46D8F81070D4F81090D8F80830D8F8041007EB09069E42C8BF0131FFF708FF00F1140505EB860C2B46DC
:403EC0000022634502D243F8042BFAE704F1140208F1140102EB890301EB87070093009B0192934257D9B2F800B0BBF1000F23D08946AE464FF0000859F8044BBEF800A0FF
:403F0000A3B20BFB03A34FEA144ADEF8004043444FEA14480BFB0A8404EB1344F2469BB243EA04434F454FEA14484AF8043B01D9D646E1E7CEF80480019BB3F802A0043213
:403F4000BAF1000F21D02B682C4689464FF00008B9F800E0B4F802B00AFB0EBEF044A3469BB243EA08434BF8043B59F8043BB4F804E01B0C0AFB03E303EB18434F454FEA0F
:403F8000134801D95C46E3E763600435A7E75CF8043D13B9013E002EF9DC066103B0BDE8F08F00002DE9F843154612F0030206460F4607D0013A214C002354F82220FFF77B
:403FC000CEFE0746AD1036D0746A3CB91020FFF713FE7062446084600460C460D6F82480D8F808404CB940F271213046FFF73FFF0023C8F80800044603604FF00008EB072B
:404000000AD5394622463046FFF73AFF394681463046FFF78DFE4F466D100CD0206808B10446ECE7224621463046FFF729FF2060C0F80080F4E73846BDE8F8834050081050
:404040002DE9F0470C464FEA621A26694968A368564407469146751CAB4202DA01315B00FAE73846FFF72FFE0023804600F114011A46534503DA41F823200133F9E72AEA12
:40408000EA73206901EB830319F01F0904F1140101EB800E14D0C9F1200C0022086800FA09F002439A4643F8042B51F8042B8E4522FA0CF2F2D8CAF8042042B1B51C06E056
:4040C000043B51F8042B43F8042F8E45F9D8013D3846C8F810502146FFF72AFE4046BDE8F08703690A699B1A10B511D192001430143183180A4453F8044D52F8041D8C42E0
:4041000002D007D3012010BD9842F4D3002010BD184610BD4FF0FF3010BD2DE9F8430C460746114620461546FFF7DBFF061E08D131463846FFF7C7FD012303614661BDE899
:40414000F883BCBF23462C4638466168BABF1D4601260026FFF7B7FD2B69C660266905F11409143404EB860709EB830800F114054FF0000C54F8043B59F8042B1CFA83F1CB
:404180001FFA82FE120CCEEB0101C2EB134303EB214389B24FEA234CC84541EA0343A64645F8043BE6D8BE450ED25EF8041B1CFA81F2131403EB114392B242EA03424FEA79
:4041C000234C45F8042BEEE755F8043D0BB9013EFAE70661BDE8F8832DE9F34101211C46089E099D9046FFF76EFDC4F31303C4F30A5407460CB143F480130193B8F1000FC3
:4042000019D002A840F8088DFFF704FE009B48B1019AC0F1200102FA01F10B43C2407B61019200E07B61019BBB61002B14BF02210121396107E001A8FFF7ECFD019B7B6140
:4042400001213961203034B1A4F2334404443460C0F1350009E007EB8103A0F2324030601869FFF7B7FDC0EB41102860384602B0BDE8F08138B502FB01F4214600F056F812
:40428000054618B122460021FDF752FF284638BD38B50546002946D051F8043C0C1F002BB8BFE41800F052FB1F4A1368114613B96360146032E0A3420ED92268A018834290
:4042C00004BF18685B68636004BF121822600C6024E0A24203D813465A68002AF9D118681918A1420BD12168014458188242196014D1106852685A60014419600EE002D905
:404300000C232B600AE021686018824204BF10685268626004BF091821605C602846BDE8384000F014BB38BD8C4B020870B5CD1C25F0030508350C2D38BF0C25002D0646DA
:4043400001DBA94202D90C23336046E000F0FEFA234B1C681A462146A1B10B685B1B0ED40B2B03D90B60CC18CD501EE08C420DBF63684B686360136018BF0C4615E00C46BB
:404380004968E9E7174C23681BB9304600F072F920602946304600F06DF9431C18D0C41C24F00304A0420DD12560304600F0CFFA04F10B00231D20F00700C31A0ED05A42CA
:4043C000E25070BD211A304600F054F90130EBD10C233360304600F0BAFA002070BD00BF8C4B0208884B02089368013B002B10B4936009DA9469A34202DBCBB20A2B03D19C
:404400005DF8044B00F08AB91368581C10601970C8B25DF8044B7047F8B506460F461446D518AC4208D03A4614F8011B3046FFF7DBFF431CF5D100E00020F8BD2DE9F04F70
:404440009DB00C4617460393064618B183690BB9FFF7E4FA7F4B9C4201D1746808E07E4B9C4201D1B46803E07C4B9C4208BFF468A38918070CD5236953B1002309932023D5
:404480008DF8293030238DF82A30DFF8D4B144E02146304600F0A8F90028EED04FF0FF30D5E0039A111D12680391002A80F28C80524243F002000792049098F800302E2B65
:4044C00000F08480032298F800106548FFF7A0FB48B14023CBEB000003FA00F0049B1843049008F1010898F800105E488DF82810062208F10107FFF78BFB002800F0958061
:40450000594B002B40F08880039B073323F0070308330393099B53440993B846454615F8013B1BB9B8EB07090FD003E0252BF9D0A846F3E74B463A4621463046FFF76CFF8C
:4045400001307FD0099B4B44099398F80030002B78D000234FF0FF3204930793059206938DF853301A930127052229783F48FFF74FFB05F10108049B38B13C4A801A07FAB1
:4045800000F0184304904546EEE7D90644BF20228DF853201A0744BF2B228DF853202A782A2A3FF47EAF079A00210A20A846013598F80030303B092B03D800FB0232012146
:4045C000F4E700293FF479AF079276E798F801302A2B0BD1039B1A1D1B680392002BB8BF4FF0FF3308F1020805936BE70023059308F1010019460A258046013098F800209D
:40460000303A092A03D805FB01210123F4E7002B3FF458AF059155E703AB00932246144B04A93046FDF71EFE07E003AB009322460F4B04A93046FEF7CFF8B0F1FF3F8246FF
:404640007FF468AFA3895B063FF528AF09981DB0BDE8F08FD84F0810F84F081018500810465108104A51081065220810405108101944081038B5064C0023054608462360CB
:4046800000F05EFA431C02D1236803B12B6038BDD04B020810B50C46B1F90E1000F058F90028ABBF636DA3891B1823F48053ACBF6365A38110BD2DE9F0411F468B89DB050D
:4046C00005460C46164605D502230022B1F90E1000F02AF9A389B4F90E1023F48053A38132463B462846BDE8F04100F06BB810B50C46B1F90E1000F017F9431CA38915BF32
:40470000606523F4805343F48053A38118BFA38110BDB1F90E1000F0D5B80000F8B50F461446064618B183690BB9FFF777F9224B9C4201D1746808E0204B9C4201D1B468F0
:4047400003E01F4B9C4208BFF468A369A360A3891A0709D523693BB123682069181A63699842FDB20FDB08E02146304600F03CF80028F1D04FF0FF30F8BD21463046FFF7EC
:40478000E3F80028F6D1A368013BA36023685A1C22601F706269431C934204D0A389DB0707D50A2D05D121463046FFF7CDF80028E0D12846F8BD00BFD84F0810F84F081018
:4047C0001850081038B5074C054608461146002222601A46FDF77EF8431C02D1236803B12B6038BDD04B0208324B70B51D6806460C4625B1AB6913B92846FFF70FF92E4B25
:404800009C4201D16C6808E02C4B9C4201D1AC6803E02B4B9C4208BFEC68B4F90C309AB215071DD4D00602D4092232603AE0510712D5616B41B104F14403994202D030465E
:40484000FFF726FD00236363A38923F02403A3810023636023692360A38943F00803A38123694BB9A38903F42073B3F5007F03D021463046FFF784F9A28912F0010305D093
:404880000023A36063695B42A36103E0920758BF6369A36023695BB9B4F90C3003F0800080B230B143F04003A3814FF0FF3070BD002070BD0C430208D84F0810F84F08107B
:4048C0001850081038B5064C002305460846236000F016F9431C02D1236803B12B6038BDD04B020838B5074C0023054608461146236000F00DF9431C02D1236803B12B60DD
:4049000038BD00BFD04B020838B5064C002305460846236000F004F9431C02D1236803B12B6038BDD04B020838B5074C054608461146002222601A4600F0FAF8431C02D1D5
:40494000236803B12B6038BDD04B02087047704738B5074C054608461146002222601A46FCF7CAFF431C02D1236803B12B6038BDD04B02084FF0FF3C06E000BF4FF0010C74
:4049800002E000BF4FF0010C4DF804CD4FEA410C7FEA6C5C4FEA430C18BF7FEA6C5C1BD001B050EA410C0CBF52EA430C91EA030F02BF90EA020F0020704710F1000F91EAF9
:4049C000030F58BF994208BF90422CBFD8176FEAE37040F0010070474FEA410C7FEA6C5C02D150EA013C07D14FEA430C7FEA6C5CD6D152EA033CD3D05DF8040B704700BF7B
:404A00008446104662468C461946634600E000BF01B5FFF7B7FF002848BF10F1000F01BD4DF808EDFFF7F4FF0CBF012000205DF808FB00BF4DF808EDFFF7EAFF34BF012063
:404A400000205DF808FB00BF4DF808EDFFF7E0FF94BF012000205DF808FB00BF4DF808EDFFF7CEFF94BF012000205DF808FB00BF4DF808EDFFF7C4FF34BF012000205DF821
:404A800008FB00BF4FEA410C7FEA6C5C02D150EA013C0AD14FEA430C7FEA6C5C02D152EA033C02D14FF0000070474FF0010070474FEA410212F5001215D211D56FF47873E1
:404AC000B3EB625212D94FEAC12343F0004343EA505311F0004F23FA02F018BF404270474FF00000704750EA013005D111F0004008BF6FF0004070474FF00000704700BF5D
:404B0000024B58221A604FF0FF307047D04B0208024B58221A604FF0FF307047D04B0208024B58221A600020704700BFD04B0208024B58221A604FF0FF307047D04B0208D8
:404B4000044A05491368002B08BF0B461844106018467047904B0208D84B0208F8B500BFF8BC08BC9E467047F8B500BFF8BC08BC9E4670474368616E6E656C202325642C39
:404B80002042696E617279203D202564256425642564200A0D00000003000000010000000100000000000000050360000400000001000000000000000100000006046000BB
:404BC00008000000004B0208390508102E0000000700000047656E6572617465645F536F757263655C50536F43365C70646C5C647269766572732F706572697068657261A1
:404C00006C2F6970632F63795F6970635F6472762E68000047656E6572617465645F536F757263655C50536F43365C70646C5C647269766572735C7065726970686572615D
:404C40006C5C6970635C63795F6970635F6472762E68000047656E6572617465645F536F757263655C50536F43365C70646C5C647269766572735C706572697068657261C3
:404C80006C5C6970635C63795F6970635F6472762E63000047656E6572617465645F536F757263655C50536F43365C70646C5C647269766572735C70657269706865726188
:404CC0006C5C6970635C63795F6970635F706970652E630047656E6572617465645F536F757263655C50536F43365C70646C5C647269766572735C706572697068657261E6
:404D00006C5C7363625C63795F7363625F756172742E680047656E6572617465645F536F757263655C50536F43365C70646C5C647269766572735C7065726970686572619A
:404D40006C5C7363625C63795F7363625F636F6D6D6F6E2E6800000047656E6572617465645F536F757263655C50536F43365C70646C5C647269766572735C70657269702D
:404D8000686572616C5C7363625C63795F7363625F756172742E630047656E6572617465645F536F757263655C50536F43365C70646C5C647269766572735C70657269701F
:404DC000686572616C5C737973696E745C63795F737973696E742E63000000000000204000002440000000400000000000002340000030400000314000009F400000224046
:404E00000000104002020202020202020210101D800017007500FF030602063604102000000000007FC0000000040000000000000019324B647D00804000080B10000000B0
:404E40000000FF012002001F00800004FF081018001000140018001C4044484C500000000810000008000000040000000410000000120000042100000021000000160000D8
:404E800040114002C41300138013A013200000001C0000000000214000002540000001400000344000002440000031400000324000001F4100002340000011400101010119
:404EC0000101010101101010800019005500F0000501053B04101C01010000000FC000000004000001010101011D3A57789600082000101208000000001F00000010000F03
:404F0000002000023F06080E00080009000A000B24282C3034000000100000009000000088000000080000008000000004F0000000F00000400200002005A000D001000185
:404F40008001A0012000000010000000000000000C0000000800000000020000000000000000000000000000000000000000000000000000000000000B00000000000000BE
:404F800000000000000000000000000043000000AC420208494E4600696E66004E414E006E616E0030003031323334353637383941424344454600303132333435363738DC
:404FC0003961626364656600496E66696E697479004E614E0000000000000000000000000000000000000000000000000000000000000000000000000000000000000000DC
:405000000000000000000000000000000000000000000000000000000000000000000000000000000000000000000000000000000000000000000000504F534958002E00AF
:4050400005000000190000007D000000000000000080E03779C34143176E05B5B5B89346F5F93FE9034F384D321D30F94877825A3CBF737FDD4F1575000000000000F03FE7
:40508000000000000000244000000000000059400000000000408F40000000000088C34000000000006AF8400000000080842E4100000000D01263410000000084D797418B
:4050C0000000000065CDCD41000000205FA00242000000E876483742000000A2941A6D42000040E59C30A2420000901EC4BCD64200003426F56B0C430080E03779C3414374
:4051000000A0D8855734764300C84E676DC1AB43003D9160E458E143408CB5781DAF154450EFE2D6E41A4B4492D54D06CFF08044F64AE1C7022DB544B49DD9794378EA448C
:40514000232D302B2000686C4C00656667454647000000000000000000000810004002088C020000785108108C4202086406000084490208500200000048E80100127A0047
:4051800000093D0000127A0000127A0008000000401F00000000A00F00000000D84F0810F84F081018500810000000000000000000000000000000008C4F0810000000006A
:4051C0000000000000000000000000000000000000000000000000000000000000000000000000000000000000000000000000000000000000000000AC4202083E50081011
:40520000455108104551081045510810455108104551081045510810455108104551081045510810FFFFFFFFFFFFFFFFFFFFFFFFFFFF0000B10208108D02081000000000EC
:4052400080B2C10050B3164B1B681A6AB3F8B030C3EBC303D358002BF5DA3E22114B1A6041F61E7204331A60A3F584730622C3F8182521F07F41C3F81C15D3F81C35084B23
:405280001A68116AB2F8B030C3EBC3030B4400225A60054BD3F81C35002BFADA704700BF944B02080401264000002640F8B5274B1B6893F83130052B04D840F2C311244821
:4052C00000F05CFA214F3A68166AB2F8B03003EB83031E4452684FF26003D458A4B200F03DFA05463B681968D3F890208A58013C032C27D8032A0CD1164A127812F0FF0F34
:4053000007D10822B2601968D3F890208A58032AF9D01968D3F884208B588858C0F307221B0E581C02FB00000B4B03FB00F00B4B1B680B4AA2FB03239B09B0FBF3F0823043
:40534000FFF77EFF284600F031FAF8BD944B0208D44B08100B00001640420F0090420208D34D62104378FF2B23D110B500F0F6F90446104B1B6893F83130042B04D840F26E
:40538000C3110D4800F0FAF90A4B1A68136AB2F8B02003EB8203DB685A68136843F001031360136813F0010FFBD1204600F0FEF910BD7047944B0208D44B08102DE9F047DE
:4053C00007468846554B1B6893F83130012B04D840F2C311524800F0D1F9504B1B681C6AB3F8B0201444D3F8B420161993F85030002B79D04B4B1B7813F0FF0F02D04FF012
:40540000000901E04FF00109B9F1000F38D0434B1B6893F83130052B04D840F2C311404800F0ACF93D4B1A68116AB2F8B03003EB83030B44D2F8B420D358002B22DB002069
:4054400000F0C4F9384B98421ED00023374A12690121184600F08AF918B1354D17E0013500E00025002000F0B1F92F4B984202D0304B9D42F3D92F4B9D4207D92C4D06E007
:40548000002504E02A4D02E0294D00E00025002D41D100F063F98246274BD3F81C35002B10DA224A0121204600F078F960B94046FFF7C6FE57B13368002BFCDB00F066F977
:4054C000054604E01A4D02E0194D00E01B4DB9F1000F05D00121002000F070F90028F9D1504600F063F916E000F038F980460F4A0121204600F052F938B947B13368002BE1
:40550000FCDB00F043F9054602E0094D00E00B4D404600F04BF92846BDE8F087944B0208D44B08100B00001601018800204B020805005200EF4902000000264001005000E1
:40554000F0B47F4B1A6855684FF0B0535B7813F0FF0F04D04FF0B0535B78DBB200E02123212B55D1116AB2F8B030C3EBC303CC18CB58002BF6DAE36843F00103E360146A8E
:40558000B2F8B030C3EBC3031C44E36813F0020F2DD0E3689EB21368D2F884105958090A090401F47F01D2F88870DB591B0A41EA03633343E3601168D2F884208B5823F431
:4055C0007F4343F410638B505D4A13681C68D3F88810635823F47F4343F41063635013681A68D3F884105158D3F88830D358544B1A68116AB2F8B030C3EBC3030B440021AD
:405600005960116AB2F8B030C3EBC3030B445B684B4B19680C68D1F894301C44494A136943F004031361012801D030BF07E020BF454B1B7803B120BF0122434B1A702368C6
:4056400003F00303022BE9D00A6AB1F8B030C3EBC303D018D358002BF6DA4FF0B0535B7813F0FF0F04D04FF0B0535B78DBB200E02123212B30D1C36813F0020F1FD00C681D
:40568000D1F88410635823F47F42C3681B0C1B0203F47F4313436350294B19680C68D1F88800235823F47F420D6AB1F8B030C3EBC3032B44DB681B0E42EA03232350204B3D
:4056C0001A68136AB2F8B020C2EBC2021344DA6822F00102DA6026E0D5F80C311BBB1B490E681B4BD3F818451A4A106841F61E770F600621C3F818153E2111604422C3F873
:405700001C25134BD3F81C35002BFADA4FF0AA33C5F80C310D4B1E60A3F58473C3F8184503F582731860064B1A68116AB2F8B030C3EBC3030B4400225A60F0BC704700BF1E
:40574000944B020800ED00E0484B02080801264000002640040126400000000001B40248844601BC604700BFBB18081001B40248844601BC604700BF310D081001B402487E
:40578000844601BC604700BFE117081001B40248844601BC604700BF2908081001B40248844601BC604700BF5109081001B40248844601BC604700BFC318081001B402487B
:4057C000844601BC604700BFD50A081001B40248844601BC604700BF5D0B081000000000000000000000000000000000000000000000000000000000000000000000000059
:0200000490303A
:020000005AC2E2
:0200000490501A
:0C0000000005E2F021002101E3107BC2AA
:00000001FF