:020000041000EA
:4000000000400208230100100D00000085010010000000000000000000000000000000000000000000000000000000008101001000000000000000008101001081010010E9
:400040008101001081010010810100108101001081010010810100108101001081010010810100108101001081010010810100108101001081010010810100108101001060
:400080008101001081010010810100108101001081010010810100108101001081010010810100108101001081010010810100108101001081010010810100108101001020
:4000C00010B5064C2378002B07D1054B002B02D0044800E000BF0123237010BD9C06000800000000643C0010084B10B5002B03D00749084800E000BF07480368002B00D12A
:4001000010BD064B002BFBD09847F9E700000000A0060008643C00104C010008000000007047FFF7FDFF72B60F4C104DAC4209DA21686268A368043B02DBC858D050FAE744
:400140000C34F3E70A490B4A0020521A02DD043A8850FCDC084809490860BFF34F8F00F013F900F01DF8FEE7683C0010803C00109C060008C00800080000000808ED00E00D
:40018000FEE7FEE700B504207146084202D0EFF3098001E0EFF30880043001F067FCFEE710B562B6074800F075F901F0FFFF064B1B68586800230222002102F0B1F8002076
:4001C00010BDC046000008104001000810B5002000F0DCFF10BDC04670B56249E0239B00CB580F2213401A00D0329200525807210A40032A05D0042A06D0002A12D15A48B4
:4002000014E05A4A106811E01A00C0329200554952581F210A40112A06D0132A04D0FA20C00103E0524801E080200002002B36D14C4BB222D2009A5801211140B125ED00B9
:400240005A59120F032422405B591B0F1C4207D0444C63591B0F03242340012B02D102E0012300E00023002B01D0002901D1032A4BD13C4BB022D2009D58AD03AD0B3D49B8
:400280005958C904C90C9C58240E01231C40013401F0A8FF6843210001F0A4FF35E0012B33D1304BC822D2009A5801251540C024E4001A59120F03210A401B591B0F19426C
:4002C00007D028490B591B0F03210B40012B02D102E0012300E00023002B01D0002D01D1032A12D11F4DC022D200AB587F210B40A958090A1F263140AC58240C344058438B
:4003000001F070FF210001F06DFFE0239B00154AD3581B0903221340D840144C6060164B1D692D0AFC32154001351969090E013101F058FFA060290001F054FF0500E06047
:4003400020610E4BC0180E4901F04CFF20750D4BE818FA21890001F045FFA061C003E06170BDC0460000264000127A00C000000800366E0184050000000021403F420F0061
:4003800040420F00E703000010B5284801F0DEFE274CB022D200A3585B005B08A350E0218900635830208343635080235B04A350204A214BE250A02292010433E250FF2213
:4003C0001E4BE25001F0B0FEC0225200A35801218B43A35000F0C8F9FFF7FEFEB0235B055B78002B04D0B0235B055B78DBB200E02123212B03D1124B0022DA605A60114C62
:4004000022008021042000F067FC2000103000F0FBFC0D4B1A685123D35C002B02D00B4800F068FD00F030FB10BDC046043B00100000264001000200840500008C05000059
:40044000E0002340B806000880080008542B00108023024AD3580320184070470000214010B501F096FB084980228C58074B2340074C23438B508823034AD358DB06FAD56D
:4004800001F08BFB10BDC04600002140FCFF00000100FA0570B50500830504D0E821FF310F4801F0B5FA01F074FB0400FFF7D0FF032801D1FFF7D4FF0A4AB0239B00D5500A
:4004C00080215058084B03400848034353508823044AD358DB06FAD5200001F05EFB70BD882B001000002140FCFF00000300FA0510B504002100034800F07AFE0028F9D0CA
:4005000010BDC04600006640C2239B00034AD358DB05F9D0D0239B00D058704700006640FEE7C046F0B50025002711E0BB00C658F3B2FF22964308E06A008A181478A4190C
:40054000527822700135013BDBB2002BF4D10137002FEBD0F0BDC04630B587B06E49A022D2008B58032083438B506C4A116808688823CB58C3181868694908401860136898
:40058000186884241B59C01803681B021B0A80256D042B430360106805680359EB1818680140196013683E229A5C002A06D05A48E02189004258753CA24342503E229A5CA0
:4005C000002A06D05448E021890042583024A24342503E229B5C002B07D04F49E02292008B588020000603438B500021012000F0EBFF0021022000F0E7FF0021032000F0D8
:40060000E3FF0021042000F0DFFF0021002000F0DBFF01A8434903000A0032CA32C312CA12C300F0FFFF002802D00420FFF778FF39493D4A8B588020000603438B503B4827
:4006400001F0ACF8002802D00420FFF769FF324C374BE158374A0A40E250E158364A0A40E250E25880252D062A43E250043BE158324A0A40E250E158314A0A4080218901B4
:400680000A43E250E258802109020A43E2502D4A11682D4B0B40802149000B431360002001F0B8FC294BE2581543E550E158012291430A43E2506421002001F0EFF9174B69
:4006C0001B683F229A5C052A03D90021204A986881509A6874215B5AD2181168104B0B408C2189010B4313600C4B1A687323D15C703B8B4019007023D35C7220105C8340BE
:400700000B43802109060B438021C9009068435093685B5807B030BD0000264080080008FF00FFFFA02B0010087F0000400D030004050000FEFCFFFFFFFF00FFFFF0FFFF96
:40074000FF8FFFFF00002740FFFCFFFF0C050000140C000010B50A00002101F0D8FD10BD10B501F0CBFD10BD70B58AB09621002001F094F901F06AF9002814D101F056F939
:40078000C0235B00544AD358DB0705D41100534A8B585B005B088B504F49504A8B588020000603438B50012001F0CCFB4C4A516C4C4B0B40E82189010B435364536C1B0AE7
:4007C000FF2213403A2B07D1454A516C464B0B40E82189010B435364002300224349444801F036FC002300224249434801F030FCFFF7B2FE414A424B1A6000240CE06200E6
:40080000121953003F4AD318198B9A8AD88A00041043FFF79FFF01340B2CF0D900240AE0620012199300374AD3185A6E196ED86DFFF796FF0134112CF2D9334D2900343178
:4008400028003830FFF76EFE304A1368812149000B43136001AC24220021200001F057FD80231B03E3602100294800F015F922002B003C3343CB43C243CB43C243CB43C2E3
:400880002100244800F008F922002B00603323CB23C223CB23C223CB23C221001E4800F0FBF822001D4B043323CB23C223CB23C223CB23C221001A4800F0EEF824220021FD
:4008C000200001F024FD174BE3602100164800F0E3F80AB070BDC046000026400C05000000002740FF00FFFFFFC5FFDF0F0E0040050E0000010700402A0700000300FA0582
:40090000F0012140A02B0010A02C001000793440000032408002324000033240202D0010800332406666060080043240214B984230D00ED8402831D004D800281FD010280C
:400940002AD031E080282BD080235B00984229D02AE0194B984229D007D8A0231B0698420DD0164B984212D01EE0154B98420AD0144B984209D0144B984215D101E00020DC
:4009800016E0124814E0124812E0124810E0A020C0030DE007480BE00F4809E00F4807E00F4805E0034803E00E4801E0A420C0037047C04606005200010000F0090000A05E
:4009C000040000F0050000F0030000F0010052000200520003005200010050000200500005005200FF00520070B5124B1A683123D35C002B04D1C421FF310F4801F008F8F0
:400A00000C4B1D682C00B423EB582A6A944663441B68002B0BDB094B1868FFF787FF6B6801229A6063689B68002BFBD100E0044870BDC046800800087836001048080008E1
:400A40000200500010B50D4B1861002805D002230370FD33437000234380094B1B6850229A5C002A08D051229B5C002B04D04F3A0449002000F0F8FA10BDC0464808000883
:400A800080080008C501000810B502481430FFF7D9FF10BD4808000870B505000C0000285DD000295DD0FF230A689A4303D099212D4800F0ADFFFF2322699A4303D09A218A
:400AC000294800F0A5FFA3685B0D03D09B21264800F09EFF63685B0A03D09C21224800F097FFE3695B0F03D09D211F4800F090FF236A5B0F03D09E211B4800F089FF1B4A4E
:400B000011688B69EB1ADB0949691B01CB18216829607D211068415C6918E06808607E211068415C6918206908607F211068415C6918606908607C211068415C6918A068F0
:400B400008606168A961116880228A5CAD18A2692A60E2691A60226A5A60002002E0044800E0034870BDC046B83600108008000801005A0070B504000D000A4B1A68B4235B
:400B8000D3581B181B68002B0ADA0B0C03D00649064800F03DFF2D042D0C6560002000E0034870BD80080008D50200003837001001008A0070B505000C000368002B01DAD3
:400BC000002300E0084B002B0BD1EA60230C03D00649074800F01CFF2404240CAC60002000E0014870BDC04601008A00BB0200003837001070B505000C1E03D199210848CA
:400C000000F006FF074B1A68B423D3585B191B68002B03DAEB682360002000E0024870BD783700108008000801008A0070B504000D00234B1A683123D35C834236D900291D
:400C400036D00B68DB0635D13123D35C984204D3C421FF311B4800F0DBFE194B1B681A6AB0215B5A5C431419174E34602B68DA080021686801F04BFB00212000FFF77AFF9C
:400C80003468002D03D111490E4800F0C1FE2A0000212000FFF78EFF00280DD10A4B18680021FFF767FF002808D108E0084806E0074804E0064802E0064800E0054870BDC8
:400CC0008008000838370010600800089303000003018A0001018A0010B50400002A17D1002915D1124B1A683123D35C984204D3C421FF310F4800F08BFE0D4B1B681A6A84
:400D0000B0215B5A5C4314190B4B1C6000200EE0002A09D0002909D0074B59609A60191D2000FFF783FF02E0044800E0034810BD80080008383700106008000803018A0076
:400D4000F0B583B00D001C4B1B68DC68236883422DD947097B01C01A012383401E00002903D100F016FF019001E000230193124B18680368002B01DA002300E00F4B002B5E
:400D80000ED16368BF00DF193B68334203D0B3433B60002400E00A4C0021FFF7EBFE00E0084C002D04D1019800F0F7FE00E0064C200003B0F0BDC0466008000801008A0095
:400DC000020188000301880004018A000A4B1B68DA68136883420BD943095901401A0121814052689B009B580B4203D0034802E0034800E003487047600800080101880070
:400E000004018A0000018800034B1B68002B01D1014B18607047C0466C080008F0B5474680B404000F0090461E002D4B1B68002B03D1B5212B4800F0EBFD294B1B682C2004
:400E400060431C18FF22150035402560330A13406360360CA660244B1A683123D35C9D4204D3C421FF31214800F0D2FD1E4B1A68B023D35A6B43116A8C466344236166688A
:400E80003223D35C9E4204D3E021FF31174800F0BFFD154B1B681D6A80367601AD196561A668330C04D0FF214900104800F0B0FD330C03D00E490D4800F0AAFD3604330C4B
:400EC0001E43AE604346E36127620023A361069B002B02D000229B5EA38104BC9046F0BD6C080008B83700108008000838370010FF010000F0B58FB0041E03D1522129489E
:400F000000F086FD6368032B03D95421254800F07FFDE36A002B03D15821224800F078FD236B002B03D159211E4800F071FD07AA1300210061C961C321C921C302AD2900E3
:400F400023001433C1CBC1C141CB41C10821535E0CAE3380144B1B6836215B5E07998C466344B370089B0D930B9B0A980096A26AE16AFFF753FF2B69E868002200920021FD
:400F8000FFF74CFF216B300000F0D4FC0023F25E002A05DB1F231A401E3B9340034A13600FB0F0BDB83700108008000800E100E0F8B505000F0016001C00002A03D1FD21A4
:400FC000224800F025FD224B1B68002B03D1FE211E4800F01DFD1E4B1B682C2128004843181879435918012213004D68AB401B044568AA4015000269002A20D08F69002F61
:401000001FD11268002A01DA002200E0114A002A19D132681204120C134333600369DE6001238B614C6204692B0C03D00A490B4800F0EEFC2A04120CA260002004E0084818
:4010400002E0084800E00748F8BDC046B83700106C08000801008A00BB0200003837001004028A0007028A0070B504000D0016000F4B1B68002B04D1AF2149000D4800F068
:40108000C7FC0B4B1B682C2060431C18236A002B04D1B1214900074800F0BAFCE369B34204D9236AB6009D51002000E0024870BD6C080008B83700100A028A0070B582B0A6
:4010C000040000230193002804D1D221FF312D4800F09EFC2369002B04D1E9214900294800F096FC6369002B04D1D421FF31254800F08EFC236A002B04D1EA214900214822
:4011000000F086FC6269D5682B0C24D01B041360136820691C4B1A68B423D358C3181B68002B18DA01A9FFF765FD00280ED1019803681E0CFF221340E269934207D29B00CF
:40114000226AD358002B02D0984700E0002631002069FFF70FFD2D042D0C0FD063691D601B68636A002B03D098470023636203E0A36A002B00D098470023A36163691B6833
:4011800002B070BDB83700108008000810B50400084B1B68002B04D1B221FF31064800F037FC044B1B682C2060431818FFF786FF10BDC0466C080008B837001010B504002B
:4011C000094B1B689B6CC340DB0703D4BE21074800F01EFC044B1B681B691034A402E3580F20184010BDC04680080008F837001003681B0501D5802200E0402282239B00F4
:40120000C358DB05DB0D934204D090239B00C150012000E000207047F8B505000C001600002800D1BDE1002900D1BCE10B78022B03D93F21C14800F0EBFB637B023BDBB276
:40124000062B03D94021BD4800F0E2FBA37B002B07D0022B05D0032B03D04121B74800F0D7FB2123E35C012B03D94221B34800F0CFFB2823E35C012B03D94321AF4800F068
:40128000C7FB2378012B06D86268083A082393429B415B4208E0A37F002B05D063685A1E062393429B415B42002B03D04521A34800F0AEFBA368053B042B03D946219F48F2
:4012C00000F0A6FB6369FF2B03D947219B4800F09FFBA369FF2B03D94821984800F098FBA37C002B0FD02378002B07D1A368092B06D1A37B002B05D0012304E0012302E0CF
:40130000012300E00023002B03D04A218B4800F07FFB8B4B626B1A4203D04C21874800F077FB884BE26B1A4203D04D21834800F06FFB2378022B02D1A37F002B02D0636809
:401340005A1E00E00022237F002B02D08021490200E00021A368082B02D880231B0100E0002319430F2313400B438022920413432B60226B2B681B0501D5802300E0402349
:401380009A4203D362216D4800F042FBA26B2B681B0501D5802300E040239A4203D36321664800F035FB626A2B681B0501D5802300E040239A4203D36421604800F028FB69
:4013C00023781B06C022920413402B64637F002B01D0402200E00022A37C002B02D08023DB0000E000231A43237C002B02D08021490000E000210A43637C002B02D080214A
:40140000890000E000210A43E36A013B1B04F020000303401343627B013A07210A4013431900A27B120130231A400B001343AB64237B002B02D08022520000E00022E37B4C
:40144000002B04D12378022B03D1013B02E0012300E00023002B02D080239B0000E000231343A268013A0F273A401343C02292009446AB50FF2260691040A3691A04FF21DF
:4014800009040A400243C4239B00EA50E26A6346EB583B4003339A4201D3102A03D97A21264800F0B5FAE37F002B04D02378012B03D0002302E0002300E00123002B02D059
:4014C0008020400000E00020627B013A0723134001001943A27B120130231A400B0013436B64237B002B02D08021490000E00021A3685A1E0F2313400B432278012A02D199
:401500008022520200E00022134380229200AB50FF23226B1340C1229200AB502023E35C002B02D08022920400E000222123E35C012B09D180235B0407E0C046BC38001087
:4015400092F4FFFF8CF8FFFF002313432822A25C012A02D18022520200E000221343FF21626A0A4013432B65A36B0B4081229200AB500F4B626B13400E4AAB50E26B0E4B40
:4015800013400E4AAB50002E0FD0002373603360B360F3603362F3623363094B7363002004E0084802E0074800E00020F8BDC0466D0B0000C80F000073070000880F00003F
:4015C000EFCDAB000160AA00134B1A683C23D35C83421DD9042904D94B1EFF3B9BB2132B18D8FF290CD91F2319400C4A0300C0339B009950D03080000423835000200AE02C
:4016000007231940D0308000044BC150002002E0034800E002487047800800080000264001004A0070B5041E03D14A494A4800F0EFF9B023DB00494AD358002B00DA87E0E8
:40164000474B22689A4203D94649434800F0E0F923689B039B0BE279002A02D08022520400E000221343B022D2003C498B50A2883D4B9A4204D98C218900374800F0C8F968
:4016800022893A4B9A4203D93949334800F0C0F9A388DB04D90C23891B04364A13400B43354A2E498B50A37A0F2B04D98E218900294800F0ADF9E37A0F2B03D92F49264824
:4016C00000F0A6F9A289284B9A4203D92C49224800F09EF9A37A0F211940E27A1201FF2313400B43A289120226490A401343A27B1207C02189050A401343B122D20017492F
:401700008B50A379042B03D91F49134800F080F9228A164B9A4204D9912189000E4800F077F90E4819494558194B1D40A3791B02E022D20013402B4343504558154B1D40F3
:40174000238A1B040B4A13402B434350002000E0114870BD1F020000FC38001000002640FFFF030029020000FF1F0000FF010000310200000000FF01840500003902000062
:401780003A02000000FF1F00430200008C050000FFF8FFFFFFFF00FE03004A0070B505003149324A8B588020000603438B502C0003E0012000F020F9013CB223DB002A4A57
:4017C000D3585B0701D4002CF3D12749B122D2008858274B03408020800503438B50002D01D0002C0CD02049B022D2008B588020000603438B5003E0012000F0FDF8013CC4
:40180000B223DB00184AD358DB0701D4002CF3D1002D01D0002C08D01349B122D2008B58C020800503438B5013E00F4BB121C90058580F4A02408020800502435A500839D0
:401840005A58520052085A5008495A58520052085A50002D03D0002C03D0002002E0002000E0044870BDC046000026408C050000FFFFFFCF02004A0070B505000C001A4BDD
:401880001B6828229A5C012A15D1820807211000884327D19200AD1AED00FF20A8401B6820339A181168AC4023004B40184004004C40146016E03A229B5EDBB2994203D104
:4018C00076210A4800F0A4F8074B1B681B68072215408022120615438022920194466444A400E55070BDC046800800088439001070B504000D000B4B9A680B4B9A420CD1CE
:40190000002904D13821FF31084800F081F81034054BA400E058E55003E01034A400044BE05870BD00ED00E0000000088439001000000010F0B5474680B482B0061E019143
:401940004AD04368032B03D93221264800F060F80023F05E002804DBB178FFF78DFF002400E0214C0023F15E7368002912DB88081E4FC0308000C55903221140C900FC32A0
:4019800090468A4095439A01434613408B402B43C35116E089B20F220A40083A92080632920013481018476803221140C900FF252A008A4097439A012B0013408B403B43D4
:4019C00043600B4B9A680B4B9A4206D10023F05E0199FFF78DFF00E0034C200002B004BC9046F0BD843900100100560000E100E000ED00E00000000810B5034B1B78584317
:401A000000F0BEF810BDC046D400000801BEFEE770B50D00044C18220100200000F030FDA5610020FFF7F2FF60060008054B802212069A649B6C002B01DB002000E00248D8
:401A40007047C0460000274003004600054B8022120198585B68FF221A4202D08023DB021843704700002640FEE7C04610B50A4B0268DA6142681A6282685A62C2689A625E
:401A80000269DA6242691A6382695A63C2699A63FFF7EAFF10BDC04660060008F0B5474680B4002801D0192300E064238B429B415B42304D2C682268A826A45BA418226871
:401AC0000327BA433B401A4322602C682268A45BA2181668284CA046264016602C682668AA229446A25A96193268BA43134333602A6813686546525BD3181A684446144037
:401B00001C60002805D010291BD921291BD8012024E0184B1B6855229A5C914215D956229A5C914213D957229A5C914211D958229A5C91420FD959229B5C99420DD80420AF
:401B40000CE000200AE0022008E0002006E0012004E0022002E0032000E00520054A1268526813680F218B430343136004BC9046F0BDC04680080008FFFCFFFF00000000A7
:401B80000230800803D001300238FCD1C046C0467047EFF3108072B6704780F31088704710B5B0235B059B899BB2002B04D0B0235B059B899BB201E080235B0080225200AB
:401BC000934215D1184C23681968683A9B58C9180B680F208343963A13430B6021680C689C23CB58E318196881430A431A6019E00D4C2368196898229B58C918B020400564
:401C00000A4BC2580A4B13400A681343C022920013430B60226811689C23D358CB18054A82581A6010BDC0468008000848180000FFFCFFFF4418000030B5B0235B059B89C9
:401C40009BB2002B04D0B0235B059B899BB201E080235B0080225200934215D1184C23681968683A9B58C9180B680F208343953A13430B6021680C689C23CB58E3181968AD
:401C800081430A431A6019E00D4D2B68196898229B58C918B0246405C12040012258094B13400A681343C022920013430B602A6811689C23D358CB1822581A6030BDC04668
:401CC00080080008FFFCFFFFB0235B059B899BB2002B04D0B0235B059B899BB201E080235B008022520093420DD1104B1B681A6898215B58D21811680D4B0B40C021C90111
:401D00000B43136011E0094B1B68196898229B58C918084BB0225205D258074B13400A681343C022920013430B60704780080008FF8FFFFF18180000FFFCFFFF30B5B0230F
:401D40005B059B899BB2002B04D0B0235B059B899BB201E080235B008022520093420DD1134B1B681A6898215B58D2181168114B0B408021C9010B43136018E00C4D2B6880
:401D8000196898229B58C918B02464050A4822580A4B13400A681343C022920013430B602A6811689C23D358CB1822581A6030BD80080008FF8FFFFF4C180000FFFCFFFF34
:401DC00010B5B0235B059B899BB2002B04D0B0235B059B899BB201E080235B0080225200934217D10020FFF7E9F9B0235B055B78002B04D0B0235B055B78DBB200E0212393
:401E0000222B03D8002803D1013004E0012002E0002000E0012010BDF8B50700012803D93D493E48FFF7F4FDB0235B055B78002B04D0B0235B055B78DBB200E021239DB2C1
:401E4000B0235B059B899BB2002B04D0B0235B059E89B6B201E0802676000020FFF7AEF9002814D180235B009E4212D1222D12D82B4B1B685C682B4821582B4B19403B0683
:401E80008022520413400B432350002404E0274C02E0264C00E0254C80235B009E4201D1222D03D880235B009E4232D01C4B1A683123D35C002B04D1C421FF311C48FFF761
:401EC000A7FD174B1B681D6A80235B009E4203D1002F05D0174A06E0002F03D0164A02E0164A00E0164A01212800FEF763FE00280FD10B4B1A68B423D3585B191B68002B4D
:401F0000F7DBEB681B0E1B06A0221206934200D100242000F8BDC0464C0A0000C83900108008000818F00000FFFFFFFE0400420078360010010100300300000C0100003043
:401F40000100000CF8B50500012804D9822109012948FFF75DFDFFF733FF002849D0FFF718FE0700002D11D10021244B244AD150E823DB00B0225205D65CF6B20120FFF784
:401F80004BFF041E19D1FFF70BFE16E0B02252051C4BD0581A4B194958501B49565CF6B21A481A581F218A4314390A431A500320FFF722FDFFF7C2FE0024002C15D110498F
:401FC000124A8B581F20834306401E438E50002D02D1FFF779FE08E00720FFF70DFDFFF72BFE0020FFF718FF04003800FFF7D5FD00E0074C2000F8BDC8390010307F000084
:402000000000264010180000410700001CFF000003004200042805D10B4A116804230B4313600FE0094B1A681168A023D358CB180006C022920410401860034A1368042170
:402040008B4313607047C04610E000E080080008F0B54F464646C0B483B006000D0000921F00012B03D95B212B48FFF7D1FC330B03D05C212848FFF7CBFC284B1A686E23D6
:40208000D35A9B08013B264A13432A009A4301D16B0003D45D212048FFF7BAFC32006A40F0231B011A40141E2FD1FFF772FD01901A4B18686C23C15A83689C4661446E2382
:4020C000C35A9A08013A2A40920090466A22825A15402D0A5D432A00424455182A68920A9202FF231E40009B002B01D00134FF3426437F0280239B001F403E4316432E6033
:402100000198FFF74AFD002000E0064803B00CBC90469946F0BDC046083A001080080008000F00400100CE000749C02252008B589B009B088020C00503438B508B588020EA
:40214000000603438B50704700002640014B18607047C0468008000870B50D001600002907D1002408E02878FEF7C2F90135013400E00024B442F6DB200070BD70B50D00B0
:40218000160000290CD100240DE0FEF7BDF9C0B2287001340A2806D00D2804D0013500E00024B442F1DB200070BDC04610B5094B1B78002B07D1084A08490948FFF72CF8EB
:4021C0000122044B1A70064A1368802109060B43136010BD7008000884080008BC3B001000006640002243088B4274D303098B425FD3030A8B4244D3030B8B4228D3030CB7
:402200008B420DD3FF22090212BA030C8B4202D31212090265D0030B8B4219D300E0090AC30B8B4201D3CB03C01A5241830B8B4201D38B03C01A5241430B8B4201D34B0319
:40224000C01A5241030B8B4201D30B03C01A5241C30A8B4201D3CB02C01A5241830A8B4201D38B02C01A5241430A8B4201D34B02C01A5241030A8B4201D30B02C01A524127
:40228000CDD2C3098B4201D3CB01C01A524183098B4201D38B01C01A524143098B4201D34B01C01A524103098B4201D30B01C01A5241C3088B4201D3CB00C01A52418308B8
:4022C0008B4201D38B00C01A524143088B4201D34B00C01A5241411A00D20146524110467047FFE701B5002000F006F802BDC0460029F7D076E770477047C046002310B575
:402300009A4203D0CC5CC4540133F9E710BD03008218934202D019700133FAE770470000F0B51D00514B85B01E6804000F000092002E05D0B369002B02D1300000F0A8F998
:402340004B4B9C4201D1746808E04A4B9C4201D1B46803E0484B9C4200D1F468009B022B05D0012B00D97CE0002D00DA79E02100300000F01FF9616B002908D02300443353
:40238000994202D0300000F047FA002363630023A3616360A3891B0603D52169300000F03BFAA289354B1340A381009B022B21D003AB02AA2100300000F0FEF9A389184344
:4023C000A081002D01D1029D01E0002F25D1280000F018FA0195071E1AD1029B0193AB4202D10120404206E0019800F00BFA071E0ED1F6E700200222A3891343A381002352
:40240000A3602300473323602361012363612AE08022A389019D1343A381B369002B02D1300000F035F9009B012B03D1A389009A1A43A2810823A289276013402761656156
:40244000181E0CD001231A40002310009A4204D06D42A360A561180005E0A56003E0A36001E00120404205B0F0BDC04640010008043C0010243C0010443C00105CF3FFFF77
:40248000030030B5002A0DD00C7801335D1E013A2C700131002CF5D19A189A4202D01C700133FAE730BD0000F7B58A8905000C0013075AD44B68002B02DC0B6C002B19DDA5
:4024C000E76A002F16D000232E682B6080235B011A4001D0606D14E00123216A2800B847431C0ED12B68002B0BD01D2B01D0162B02D12E6000205AE04022A3891343A3817D
:4025000055E0A3895B0706D56368C01A636B002B01D0236CC01A00230200216A2800E76AB847A389421C06D129681D293AD8204ACA40D20736D50022626022692260DB048B
:4025400005D5431C02D12B68002B00D16065616B2E600029CED023004433994202D0280000F05AF90020606321E00F69002FC1D00B680F60DB1B01930023920700D14B695F
:40258000A36003E0019B3F181B1A0193019B002BB0DD019B3A00216A2800A66AB0470028F0DCA389402201201343A3814042FEBD010040200B6970B505000C00002B01D133
:4025C00000201CE0002804D08369002B01D100F05FF80B4B9C4201D16C6808E0094B9C4201D1AC6803E0084B9C4200D1EC680C22A35E002BE4D021002800FFF755FF70BDB2
:40260000043C0010243C0010443C001010B5024900F0B0F810BDC046B5250010002310B5040003604360836081814366C281036143618361190008225C30FFF768FE054BBB
:4026400024626362044BA362044BE362044B236310BDC04695290010BD290010F5290010212A001070B568254B1E5D430E002900743100F01DF9041E08D000212A000160EF
:4026800046600C30A0606832FFF741FE200070BD836913B50400002B28D18364C3640365134B144A1B6882620193984201D101238361200000F020F86060200000F01CF853
:4026C000A060200000F018F80022E06004216068FFF7A4FF01220921A068FFF79FFF02221221E068FFF79AFF0123A36113BDC046003C00100D260010F8B51D4B06001D688E
:40270000AB69002B02D12800FFF7C2FF4835AC686B68013B05D40C22A75E002F10D06834F7E72B68002B01D02D68F0E704213000FFF798FF28600028F6D10C23336016E067
:40274000012320005B42E3810233A38167662760A760676027616761A7615C3008223900FFF7D5FD20006763A763A764E764F8BD003C0010F7B50400070000260191483454
:40278000002C16D06368A5680093009B013B00930DD4AB89012B08D90E22AB5E013304D029003800019B984706436835EDE72468E6E73000FEBD000070B50E001D000E2374
:4027C000C95E90B01400002906DA00232B60B3891B060FD540230FE001AA00F04DF90028F3DBF023029A1B021340054A9B185A4253412B608023DB000020236010B070BD53
:4028000000E0FFFF10B5034B0100186800F050F810BDC0464001000870B50500002944D00C1F2368002B00DAE418280000F04AF91E4A13681100002B02D16360146031E01F
:40284000A3420DD92268A018834203D118685B688218226063600C6024E0A24203D813005A68002AF9D11E689819A0420BD12168711858181960824214D110685268411874
:4028800019605A600EE0A04202D90C232B6009E021686018824203D1106852684118216062605C60280000F00EF970BD78080008032370B5CD1C9D43083506000C2D01D23D
:4028C0000C2501E0002D01DBA94202D90C23336048E0300000F0F6F8234B1C681A002100002913D00B685B1B0DD40B2B02D90B60CC181EE08C4202D1636813601AE04B6812
:4029000063600C0016E00C004968E9E7174C2368002B03D1300000F02BF820602900300000F026F8431C18D00323C41C9C43A0420DD12560300000F0C6F8200007220B305B
:40294000231D9043C31A0ED05A42E2500BE0211A300000F00DF8431CEBD10C233000336000F0B1F8002070BD7808000874080008002370B5064C05000800236000F0D0F88F
:40298000431C03D12368002B00D02B6070BDC046BC08000870B50C000E25495F00F094F8002803DB636D1B18636503E0A289024B1340A38170BDC046FFEFFFFFF8B51F00BE
:4029C0008B8905000C001600DB0505D50E23C95E0022022300F062F8A289054B28001340A38132000E23E15E3B0000F01FF8F8BDFFEFFFFF70B50C000E25495F00F04EF818
:402A0000A389421C03D1054A1340A38104E0802252011343A381606570BDC046FFEFFFFF10B50E23C95E00F015F810BD70B50500080011000022064C22601A00FFF78CFB84
:402A4000431C03D12368002B00D02B6070BDC046BC080008002370B5064C05000800236000F046F8431C03D12368002B00D02B6070BDC046BC080008002370B5064C0500D9
:402A800008001100236000F03BF8431C03D12368002B00D02B6070BDBC08000870B50500080011000022064C22601A0000F030F8431C03D12368002B00D02B6070BDC04638
:402AC000BC0800087047704770B50500080011000022064C22601A00FFF750FB431C03D12368002B00D02B6070BDC046BC08000858220120014B40421A607047BC0800085F
:402B000058220120014B40421A607047BC08000858220120014B40421A607047BC080008044A1368002B03D01818106018007047014BF9E77C080008C0080008F8B5C04658
:402B4000F8BC08BC9E467047F8B5C046F8BC08BC9E467047030000000100000001000000000000000503600004000000010000000000000001000000060460000800000097
:402B800028080008CD01001073797374656D5F70736F63365F636D30706C75732E630000F4010000140004010A00090508000000630100000020344074008020344074003A
:402BC000002234407400802234407400002434407400802434407400002634407400802634407400002834407400802834407400002A34407400802A344074000021344034
:402C0000482D00109000000000233440D82D00109000000000253440682E00109000000000273440F82E00109000000000293440882F001090000000002B34401830001028
:402C40009000000000603440A83000107C00000080603440243100107C00000000613440A03100107C000000806134401C3200107C00000000623440983200107C000000CA
:402C800080623440143300107C00000000633440903300107C000000806334400C3400107C00000000643440883400107C00000080643440043500107C000000006534408C
:402CC000803500107C00000080653440FC3500107C000000680C00000171344003000000000000000000000068000000000000000000000000000000121200000000000094
:402D0000000000000000000000000000000000BA0000000000000000000000000000000000001D1D020000000000000000000000600000000000000000000000000000003D
:402D400000030000000000000000000200000000000000007FFFFFFFFFFFFFFFFFFFFFFFFFFFFFFF7FFFFFFFFF000000FFFFFFFFFFFFFFFFFFFFFFFFFFFFFFFFFFFFFFFF77
:402D8000FF0000000000000000000000001F0000000000000000000000000000FFFFFFFFFFFFFFFFFFFFFFFF111111111111111111111111811111111111111111111111F9
:402DC000111111111111111111111111111110111111111101111111000008000000000000000001FFF0FFFFFFFFFFFFFFFF7FFFFFFF0FF3FFFFFFFFF5000000FFFFFFFFF1
:402E0000FFFFFFFFFFFFFFFFFFFFFFFFFFFFFFFFFF0000000000001F1F001F00001F0007000A00000010000000000000FFFFFFFFFFFFFFFFFFEFFFFD111111111F11171188
:402E400011111111111111111111111111111110111111111111111801111111111111111111115111911111000004020000000000000000FFFFFFFFFFFFFFFFFFFFFFFFFA
:402E8000FFFFFFFFFFFFFFFFFF000000FFFFFFFFF3FFFFFFFFFFFFFFFFFFFFFFFFFFFFFFFF00000000001F07001F1F000D1F0000001F00000000000000000000FFFFFFFF91
:402EC000FFBFFFFFFDFFFFFF1111111111111111111111111101111111111111111111111111111111111111114111111111111111111011111111110000050600000000C2
:402F000000000000FFFFFFFFFFFFFFFFFFFFFFFFFFFFFFFFFFFFFFFFFF000000FFFFFFFFFFFFFFFFFFFFFFFFFFFFFFFFFFFFFFFFFF0000001F001F001F1F071F071F1F07CD
:402F40000D1F001FF000000000000060FFFFFFF7FFFFFFFFFFFFEF7D11111111111111111111111111111111111111111111111111111111111111111111111111111101C4
:402F80001111111111011111000092420000000000000010FFFFFF5FFFFFFFFFFFFFFFFFFFFFFFFFFFFFFFFFF6000000FFFFFFFFFFFFFFFFFFFFFFFFFFFFFFFFFFFFFFFF87
:402FC000FF000000001F00001F00001F001F0000061F1F070000F30000000000FFFFFFFFFFFFFFFFFFFFFBF6111111C11111111111111111111111111111111111111111E9
:4030000011D111111111111111111111111111011111111011111111009008200000000000000010FFFFF7FFF56FFFFFFFFFFFFFF6F7FFF7FFFFFF6F7F000000FFFFFFFF65
:40304000FFFFFFFFFFFFFFFFFFFFFFFFFFFFFFFFFF00000006071F1F1F001F0000000000081F001F00050000F0000FF0FFFFFFFFFFFFFFFFFF7FBFFE1111111111111111E3
:40308000111111111111111111111111111111111111111111111111171111B1131111111EB111111191E17200000001000000001F1F1F1F1F1F1F1F1F1F1F1F1F1F1F1F71
:4030C0001F1F1F1F1F1F1F171F171F1F1F1F1F1F000000000B000000001F0000000000000000600000000000FFFFFFFFFFFFFFFFFFFF3FFF111111117D11111111B111115A
:4031000011111111111111111111111111111111111111111111111111111D1111111111E111111100100000000000001F1F1F1F1F0F1F1F1F1F1F1F1F1F1F1F1F1F1F1FE3
:403140001F1F1F1F0F1F1F1F1F1F1F1F0000061F0D07020600050000001F00000000001000070000FFFFFFEFFFFFF7FFFFDFDFFF11111111111111111101111111111111D3
:40318000111111111D111111111111111111117111111111111D1111111E11001116111100002000000000061F1F1F1F1F1F1F1F1F1F1F1F1F1F1F1F1F1F1F1F1F071F1F80
:4031C0001F161F1F0F1F1F1F00001F00050B0E00001F0000070600060000060000040000FFFDFFFFFFFFFFFFFFDFFFFD111111111111111111111111111111111111111153
:40320000111111111101111111111111D111D111111119B1111E0C111111111E00000000000400401F1F1F1F1F1F1F1F1F1F1F1F1F1F1F1F1F1F1F1F1F171F1F1F1F1F1FE5
:403240001F1F1F1F1F001F000C02000C1F001F00000E000F7000000700000000FFFFFFFFFBFFFFFFEFFFDFFF11111111011111111111111111111118111111111D1111114D
:4032800011111111111111111111111111D111111F1111110111111E00000000000000081F1F061F1F1F1F1F1F1F1F1F0E1F1F1F1F1F1F1F1F1F1F1F1F1F1F1F1F1F1F1FED
:4032C000001F000D0000041F071F0C061F05001F0000500200007000FFFFF7FFFFFFEF7FFFFFF7F51111111111111111111111111111111111101111111111111115111119
:4033000041111111111D1011111111E11D1E0E111E11111100001000000000001F1F04071F1F1F1F1F1F1F1F1F1F1F1F1F1F1F0F1F1F1F1F1F1F1F1F1F1F1F1F001F070038
:403340000700040000000000001F0006000F001050000FF0FFFFFFFFFFFFFFFFFFFFFFFF11111111111111111101111111111111111111111111111111411111D4111101C8
:403380001D1111111D111111111ED1111101111E00000000000000201F1F1F1F1F1F1F1F1F1F1F1F1F1F1F1F1F1F1F1F1F1F1F1F1F1F1F1F1F1F1F1F00000000000000001B
:4033C00004070000000000000000000000000000FFFFFFFFFFFFFFFFFFFFFFFD1111111111111111111111111111111111111111111111111111111101111111111111117C
:4034000011111111111111111111111100000000000000201F1F1F1F1F1F1F1F071F1F1F1F1F1F1F1F1F1F1F1F1F1F1F1F081F1F1F1F1F1F0000000700001F070000001FA3
:403440000000000000F0000000000000FFFFFFFFFFFFFFFDFFFFFFFD11111111E11111111111111111111111171111111111111111111111111111111111111111111111EE
:4034800011111D111111110100000000000000A01F1F1F1F1F1F1F1F1F1F1F1F1F1F0E1F1F1F0E1F1F1F1F1F1F1F1F1F1F1F0B1F00000A1F00001F001F07000000000000D0
:4034C0000000000000000000FFFFFFFFFFFFFFFFFFFFFF7D11111111111111111111111171111111E111111111111111111111111111181111111111101111111811111131
:403500001101111100000000000000001F1F1F1F1F1F1F1F1F1F1F1F1F1F1F1F1F1F1F1F1F1F171F1F081F1F1F1F1F1F0D000A001F001F00000E071F001F001FF0000000DF
:40354000000200F0FFFFFFFFFFFFFFFFFFFEFFF7D1111111E11111111111111111011111111111111111111111111111111111171111111D11E11111111111D711111E1109
:4035800000000000000000001F1F1F1F1F1F1F1F1F1F1F1F1F1F1F1F1F1F1F1F1F1F1F1F1F081F1F1F1F1F1F000D00000F00000D000E00000000080000000F0000000000F4
:4035C000FFFFFFFFFFFFFFFFFFFFFFFF11111111D111111111111111110111111111111111111111111111111111111111111111B111111111111131111111110000000037
:40360000000000121F1F1F1F1F1F1F1F1F1F1F1F1F1F1F1F1F1F1F1F1F1F1F1F1F1F1F1F1F1F171F00001F060000000000000F001F070E0000000000F0000770FFFFFFF7DD
:40364000FFFFFFFFFFDFFFFF11111111111111111111111111111111111111111111111111111111111111111111111111111111111111111E11E8D147656E657261746573
:40368000645F536F757263655C50536F43365C70646C5C647269766572732F7065726970686572616C2F6970632F63795F6970635F6472762E68000047656E657261746520
:4036C000645F536F757263655C50536F43365C70646C5C647269766572735C7065726970686572616C5C6770696F5C63795F6770696F2E630000000047656E657261746523
:40370000645F536F757263655C50536F43365C70646C5C647269766572735C7065726970686572616C5C6770696F5C63795F6770696F2E680000000047656E6572617465DD
:40374000645F536F757263655C50536F43365C70646C5C647269766572735C7065726970686572616C5C6970635C63795F6970635F6472762E68000047656E6572617465D8
:40378000645F536F757263655C50536F43365C70646C5C647269766572735C7065726970686572616C5C6970635C63795F6970635F6472762E63000047656E65726174659D
:4037C000645F536F757263655C50536F43365C70646C5C647269766572735C7065726970686572616C5C6970635C63795F6970635F706970652E630047656E6572617465FB
:40380000645F536F757263655C50536F43365C70646C5C647269766572735C7065726970686572616C5C70726F745C63795F70726F742E630000000047656E6572617465B5
:40384000645F536F757263655C50536F43365C70646C5C647269766572735C7065726970686572616C5C7363625C63795F7363625F756172742E680047656E65726174656F
:40388000645F536F757263655C50536F43365C70646C5C647269766572735C7065726970686572616C5C7363625C63795F7363625F636F6D6D6F6E2E6800000047656E650E
:4038C00072617465645F536F757263655C50536F43365C70646C5C647269766572735C7065726970686572616C5C7363625C63795F7363625F756172742E630047656E65F4
:4039000072617465645F536F757263655C50536F43365C70646C5C647269766572735C7065726970686572616C5C737973636C6B5C63795F737973636C6B2E63000000008B
:4039400047656E6572617465645F536F757263655C50536F43365C70646C5C647269766572735C7065726970686572616C5C737973636C6B5C63795F737973636C6B2E68C7
:403980000000000047656E6572617465645F536F757263655C50536F43365C70646C5C647269766572735C7065726970686572616C5C737973696E745C63795F73797369DD
:4039C0006E742E630000000047656E6572617465645F536F757263655C50536F43365C70646C5C647269766572735C7065726970686572616C5C737973706D5C63795F73ED
:403A00007973706D2E63000047656E6572617465645F536F757263655C50536F43365C70646C5C647269766572735C7065726970686572616C5C747269676D75785C6379C3
:403A40005F747269676D75782E6300000000204000002440000000400000000000002340000030400000314000009F40000022400000104002020202020202020210101D1E
:403A8000800017007500FF030602063604102000000000007FC0000000040000000000000019324B647D00804000080B100000000000FF012002001F00800004FF081018EF
:403AC000001000140018001C4044484C50000000081000000800000004000000041000000012000004210000002100000016000040114002C41300138013A013200000007D
:403B00001C0000000000214000002540000001400000344000002440000031400000324000001F410000234000001140010101010101010101101010800019005500F0007C
:403B40000501053B04101C01010000000FC000000004000001010101011D3A57789600082000101208000000001F00000010000F002000023F06080E00080009000A000B06
:403B800024282C3034000000100000009000000088000000080000008000000004F0000000F00000400200002005A000D00100018001A0012000000010000000000000006A
:403BC0000C0000000800000000020000000000000000000000000000000000000000000000000000000000000B000000000000000000000000000000000000004300000061
:403C0000E00000080000000000000000000000000000000000000000000000000000000000000000000000000000000000000000000000000000000000000000000000009C
:403C4000000000000000000000000000000000000000000000000000000000000000000000000000000000000000001000000008C0000000883C0010C0000008A00500002B
:403C80009C060008240200000048E80100127A0000093D0000093D0000093D0004000000A00F00000000D00700000000043C0010243C0010443C00100000000000000000CB
:403CC0000000000000000000FC3B0010000000000000000000000000000000000000000000000000000000000000000000000000000000000000000000000000000000007D
:403D00000000000000000000E0000008E9000010C10000100000000010B50004400B27D0144B1A68146AB023D15ACA00531AE3181B68002BF4DA3E220F4B1A600F4A104BD3
:403D40001A60104B0621A322D20099500E4A98509B58084B1A68106AB023D15ACA00531AC31800225A60084B064AD358002BFADA10BDC04680080008040126401E1F000081
:403D800008012640000026401C05000010B54378FF2B20D100F028FA04000F4B1A683123D35C042B04D8C421FF310C4800F004FA094B1A68116AB023D35A9B00CB18DB6889
:403DC0005A68116801230B4313601368DB07FCD4200000F021FA10BD8008000878360010F0B585B001900291544B1A683123D35C002B04D1C421FF31514800F0DDF94F4B80
:403E00001B681E6AB4229A58971950229B5C002B77D000F0D9F9050003283CD1474B1A683123D35C062B04D8C421FF31444800F0C3F9424B1968B023CB5A5A00D218530097
:403E40000A6A94466344B4228A58D3181B68002B23DB002000F0A8F93A4B98421FD03A4B1A6900230021012000F0C6F9002803D0364C17E0013400E00024002000F094F999
:403E8000304B984202D0324B9C42F3D9304B9C4207D92E4C06E0002404E02C4C02E02B4C00E00024002C46D100F09EF90390294B294AD358002B13DA234A0121300000F008
:403EC0006BF900280ED10298FFF726FF019B002B0AD03B68002BFCDB00F07EF9040004E01A4C02E0194C00E01C4C032D05D10121002000F089F90028F9D1039800F08CF95C
:403F000019E000F071F905000F4A0121300000F043F9002809D1019B002B08D03B68002BFCDB00F059F9040002E0084C00E00B4C280000F071F9200005B0F0BD80080008C5
:403F400078360010010188004808000805005200EF4902001C0500000000264001005000F0B54F464646C0B4824B1A685468B0235B055B78002B04D0B0235B055B78DBB25B
:403F800000E02123212B67D1B023D15ACB005B1A116A8C46634419680029F5DADD6802212943D960B023D15ACB005B1A116A8C466344D968C9073ED5D9680904090C8C4616
:403FC00084271168D559A84641440968090A0904FF26360431400D0088261168894691598846C14449460968090A0906294365462943D9601168D359C9180A685E4B98467E
:404000001A4090252D012A430A605A4B99461A6813689C46925962441368414619400B002B4313604B461A681568D15969180B689359EB181B684F4B1A68B021555AEB008A
:404040005B1B156AAC46634400255D60156A515ACA00531AEB185B68484A116904230B431361012801D030BF00E020BF414B1A68B023D15ACB005B1A116A8C46634419684B
:404080000029F3DAB02149054978002904D0B02149054978C9B200E02121212932D1D968C90722D510688421525880180468324A1440DB681B0C1B02FF2109020B4023435D
:4040C00003602C4B19688823C8580B689C46604403681A400D6AB023CC5AE1000B1BEB18DB681B0E1B021A430260224B1A68106AB023D15ACA00531AC318DA6802218A436F
:40410000DA6028E086235B00E358002B23D11C4807681C4BA321C9005E581B4A904615681A4A0260062058503E21424611600631174A9950164B134AD358002BFADA154AF6
:4041400086235B00E2500E4B1F60A323DB000D4AD6500D4B1D60074B1A68106AB023D15ACA00531AC31800225A600CBC90469946F0BDC04680080008FF00FFFF00ED00E07A
:404180000801264000002640040126401E1F00001C050000AAAAAAAA01B40248844601BC604700BFB50B001001B40248844601BC604700BFCD0D001001B40248844601BCA1
:4041C000604700BF111A001001B40248844601BC604700BF5104001001B40248844601BC604700BFE909001001B40248844601BC604700BF931B001001B40248844601BCAF
:40420000604700BFB10F001001B40248844601BC604700BF410D001001B40248844601BC604700BF9B1B00100000000000000000000000000000000000000000000000004C
:40424000000000000000000000000000000000000000000000000000000000000000000000000000000000000000000000000000000000000000000000000000000000003E
:4042800000000000000000000000000000000000000000000000000000000000000000000000000000000000000000000000000000000000000000000000000000000000FE
:4042C00000000000000000000000000000000000000000000000000000000000000000000000000000000000000000000000000000000000000000000000000000000000BE
:40430000000000000000000000000000000000000000000000000000000000000000000000000000000000000000000000000000000000000000000000000000000000007D
:40434000000000000000000000000000000000000000000000000000000000000000000000000000000000000000000000000000000000000000000000000000000000003D
:4043800000000000000000000000000000000000000000000000000000000000000000000000000000000000000000000000000000000000000000000000000000000000FD
:4043C00000000000000000000000000000000000000000000000000000000000000000000000000000000000000000000000000000000000000000000000000000000000BD
:020000041008E2
:4000000000780408EB0208100D00000051030810510308105103081051030810000000000000000000000000000000004D0308104D030810000000004D0308104D030810DA
:400040004D0308104D0308104D0308104D0308104D0308104D0308104D0308104D0308104D0308104D0308104D0308104D0308104D0308104D0308104D0308104D03081000
:400080004D0308104D0308104D0308104D0308104D0308104D0308104D0308104D0308104D0308104D0308104D0308104D0308104D0308104D0308104D0308104D030810C0
:4000C0004D0308104D0308104D0308104D0308104D0308104D0308104D0308104D0308104D0308104D0308104D0308104D0308104D0308104D0308104D0308104D03081080
:400100004D0308104D0308104D0308104D0308104D0308104D0308104D0308104D0308104D0308104D0308104D0308104D0308104D0308104D0308104D0308104D0308103F
:400140004D0308104D0308104D0308104D0308104D0308104D0308104D0308104D0308104D0308104D0308104D0308104D0308104D0308104D0308104D0308104D030810FF
:400180004D0308104D0308104D0308104D0308104D0308104D0308104D0308104D0308104D0308104D0308104D0308104D0308104D0308104D0308104D0308104D030810BF
:4001C0004D0308104D0308104D0308104D0308104D0308104D0308104D0308104D0308104D0308104D0308104D0308104D0308104D0308104D0308104D0308104D0308107F
:400200004D0308104D0308104D0308104D0308104D0308104D0308104D0308104D0308104D0308104D0308104D0308104D0308104D0308104D0308104D0308104D0308103E
:400240004D0308104D0308104D0308104D0308104D0308104D0308104D0308104D0308104D0308104D0308104D0308104D0308104D0308104D0308104D0308104D030810FE
:400280004D0308104D0308104D03081010B5054C237833B9044B13B10448AFF300800123237010BD844902080000000064510810084B10B51BB108490848AFF300800848C9
:4002C000036803B910BD074B002BFBD0BDE81040184700BF00000000884902086451081050430208000000007047FFF7FDFF72B6104C114DAC4209DA21686268A368043B71
:40030000A2BFC858D050FAE70C34F3E70B490C4A00209142BCBF41F8040BFAE709480A490860BFF34F8F00F003FA00F0DDF900F0CDF8FEE768510810805108108449020866
:40034000D44B02080040020808ED00E0FEE7FEE700B504207146084202D0EFF3098001E0EFF30880043001F053FAFEE70F2800F2A980DFE800F008121C26303A444E586297
:400380006C76808A949E504B01225A6002225A6004225A6008225A6070474B4B01229A6002225A6004225A6008225A607047464B01225A6002229A6004225A6008225A60F2
:4003C0007047414B01229A6002229A6004225A6008225A6070473C4B01225A6002225A6004229A6008225A607047374B01229A6002225A6004229A6008225A607047324B52
:4004000001225A6002229A6004229A6008225A6070472D4B01229A6002229A6004229A6008225A607047284B01225A6002225A6004225A6008229A607047234B01229A6024
:4004400002225A6004225A6008229A6070471E4B01225A6002229A6004225A6008229A607047194B01229A6002229A6004225A6008229A607047144B01225A6002225A6050
:4004800004229A6008229A6070470F4B01229A6002225A6004229A6008229A6070470A4B01225A6002229A6004229A6008229A607047054B01229A6002229A6004229A60FB
:4004C00008229A60704700BF8004324010B582B062B601F039FA184B1868002302221946406802F0BFFA1022144B5A60002400E00024134B1B6913F0100FFAD12046FFF7BF
:4005000035FF0E4A106800F001001168C1F340011368126801900091C3F38003C2F3C0022146084802F086FAC82001F047F90F2CDED00134DDE700BF0C430208800432405F
:4005400000003240844B081008B5012000F0D0FC08BD00BF704700BF5C4AD2F8803303F00F0303F1D00152F8212002F00702032A04D0042A05D092B9554914E0554A116822
:4005800011E003F1C002514951F8222002F01F02112A06D0132A04D04FF4FA4103E04E4901E04FF400418BBB484BD3F8902502F00100D3F88825C2F30172D3F8883513F066
:4005C000405F07D0414BD3F88835C3F30173012B02D102E0012300E0002303B108B9032A46D13A48D0F88025C2F31103D0F88425C2F30C02D0F88005C0F300600130B1FB5D
:40060000F2F202FB03F2B2FBF0F131E0012B2FD12E4BD3F8402602F00100D3F80026C2F30172D3F8003613F0405F07D0274BD3F80036C3F30173012B02D102E0012300E067
:40064000002303B108B9032A12D12048D0F8002602F07F02D0F80036C3F30423D0F80006C0F3044002FB01F2B2FBF3F2B2FBF0F1164BD3F88033C3F3011321FA03F2154942
:400680004A601648D0F89030C3F3072301330069000E0130B2FBF0F08860B2FBF3F3CB600B6103F5742202F23F220D48A0FB0202C2F387420A7503F2E7330A4AA2FB032355
:4006C0009B098B61DB03CB61704700BF0000264000127A008C42020800366E010000214083DE1B43D34D621008B50D4801F0F4F8FFF730FFFFF730FF00221146042000F003
:40070000BFF9084800F052FA074B1B6893F8513013B1064800F0BAFA00F0FCF808BD00BFA44E0810A0490208944B0208A84B081008B501F0CAF8074AD2F8883043F4700398
:40074000C2F88830BFF34F8FBFF36F8F01F0C1F808BD00BF00ED00E010B504462146034800F006FC0028F9D010BD00BF00006640054BD3F80833C3F30803002BF8D0024B9F
:40078000D3F84003704700BF000066401F4B98422DD00CD840282ED003D8E8B1102828D02FE0802829D0B0F5807F28D029E0184B984228D006D8B0F1204F0DD0154B984251
:4007C00012D01EE0144B98420AD00133984209D0023B984215D101E0002070470F4870470F4870470F4870474FF4A0007047074870470D4870470D4870470D487047034831
:4008000070470C4870474FF4A400704706005200010000F0090000A0040000F0010052000200520003005200010050000200500005005200FF00520038B5124B1B6893F8D3
:400840003130012B04D840F2C3110F4800F0D0FF0C4B1D682A6AB5F8B03013442C46D5F8B420D358002B0BDB084B1868FFF78EFF6B6801229A6063689B68002BFBD138BD50
:40088000034838BD944B0208E44B0810204B0208020050001A4B186128B102230370FF23437000234380174B1B6893F850202AB300B583B0B3F93830ADF8003000230193B2
:4008C0001149684600F040FFBDF90030002B08DB590903F01F03012202FA03F30B4A42F82130084B1B6893F8513023B102220849012000F077FA03B05DF804FB704700BF37
:40090000204B0208944B0208C143020800E100E07944020808B50248FFF7BCFF08BD00BF344B020838B50B4B1B68D3F8B4301B58002B0DDA0D4604460B0C1B0423B140F22B
:40094000D521054800F054FFA9B26160002038BD024838BD944B0208244C081001008A0038B50368002B01DA002300E0094B73B90D460446C2600B0C1B0423B140F2BB21CD
:40098000054800F035FFA9B2A160002038BD014838BD00BF01008A00244C081038B504460D4619B99921084800F022FF074B1B68D3F8B4301B59002B03DAE3682B600020D8
:4009C00038BD034838BD00BF644C0810944B020801008A00254B1B6893F8313083423AD900293AD00B6813F01F0F38D170B50D4604461E4B1B6893F83130984204D340F2B3
:400A0000C3111B4800F0F4FE184B1B68186AB3F8B03004FB0304174E34602A68D2080021686801F08DFB00212046FFF77BFF346825B940F293310E4800F0DAFE2A460021BF
:400A40002046FFF78DFF60B900210A4B1868FFF769FF40B970BD084870470748704706487047064870BD054870BD00BF944B0208244C0810384B020803018A0001018A001D
:400A800010B504461346B2B9A9B9124B1B6893F83130984204D340F2C3110F4800F0A8FE0C4B1B681A6AB3F8B03004FB03240B4B1C60002010BD43B149B1084A51609360DF
:400AC000111D2046FFF786FF10BD054810BD044810BD00BF944B0208244C0810384B020803018A002DE9F0411B4B1B68DC68236883422CD90D464609A0EB4610012303FA2F
:400B000000F819B900F0E1FE074600E00027124B18680368002B01DA002300E00F4B83B9626852F8263018EA030F05D023EA080342F82630002400E0094C0021FFF7F2FE86
:400B400000E0084C25B9384600F0C3FE00E0064C2046BDE8F08100BF384B020801008A00020188000301880004018A000B4B1B68DB681A6882420CD94109A0EB4110012279
:400B800002FA00F05B6853F82130184203D004487047044870470448704700BF384B02080101880004018A0000018800024B1B680BB9014B18607047444B02082DE9F843CD
:400BC0000446884691461D46089F2C4B1B681BB9B5212B4800F00CFE284B1B682C2000FB04F01C18EEB21E50C5F3072363602D0CA560244B1B6893F831309E4204D340F2CE
:400C0000C311214800F0F4FD1E4B1B68196AB3F8B02006FB02162661666893F832309E4204D340F2DF11184800F0E2FD154B1B681D6A803605EB46156561A668330C1B04AC
:400C400023B14FF4FF71104800F0D2FD330C1B0423B140F2FF110C4800F0CAFDB3B243EA0646AE60C4F81C90C4F820800023A36117B1B7F90030A381BDE8F883444B0208FB
:400C8000A44C0810944B0208244C0810F0B58FB0044618B95221274800F0AAFDA369072B03D95621234800F0A3FDE36A1BB95821204800F09DFD236B1BB959211D4800F0FA
:400CC00097FD07AD04F114060FCE0FC537682F6002AD26460FCE0FC533682B60164B1B68B3F93620079B1344ADF83030089B0D93A26AE16A0CAD00953B460A98FFF75EFF8A
:400D000000210091069B0A460598FFF757FF216B284600F019FDBDF93030002B08DB590903F01F03012202FA03F3044A42F821300FB0F0BDA44C0810944B020800E100E080
:400D4000F8B506460F461D4614461AB9FD211F4800F04EFD1E4B1B681BB9FE211B4800F047FD1B4B1B682C2101FB063001FB07314B68012202FA03F31B04466802FA06F636
:400D80000269EAB18F69EFB91268002A01DA002200E0104AC2B92288134323600369DC6001238B614D620469330C1B0423B140F2BB21094800F01CFDB2B2A2600020F8BD0B
:400DC0000648F8BD0648F8BD0548F8BDA44C0810444B020801008A00244C081004028A0007028A00F8B505460F4616460E4B1B6823B94FF4AF710D4800F0FAFC0A4B1B683D
:400E00002C2404FB0534236A23B94FF4B171074800F0EEFCE369B34204D9236A43F826700020F8BD0248F8BD444B0208A44C08100A028A0070B582B000230193044620B97B
:400E400040F2D111284800F0D3FC236923B94FF4E971254800F0CCFC636923B940F2D311214800F0C5FC236A23B94FF4EA711E4800F0BEFC6369DD682A0C20D012041A604F
:400E80001B682069194B1B68D3F8B430C358002B15DA01A9FFF782FD60B9019803681E0CDBB2E269934206D2226A52F8233013B1984700E0002631462069FFF733FDADB219
:400EC00075B16369ADB21D601B68636A1BB198470023636202E0A36A03B198470023A36163691B6802B070BDA44C0810944B020810B50446074B1B6823B940F2B111064877
:400F000000F076FC034B1B682C2000FB0430FFF791FF10BD444B0208A44C081010B4D0F8003303F00F03072B06D900230DE0D0F84043CC54013300E000239342F7D306E003
:400F4000D0F8404321F8134001339342F8D35DF8044B704710B51446D0F80833C3F308039A4200D31C462246FFF7D8FF204610BD036813F4006F01D0802200E04022D0F8D1
:400F80000832C3F30803934203D0C0F84012012070470020704700BF10B4D0F8003203F00F03072B06D900230DE0CC5CC0F84042013300E000239342F7D306E031F8134098
:400FC000C0F8404201339342F8D35DF8044B704710B51446036813F4006F01D0802200E04022D0F80832C3F30803D31AA34200D81C462246FFF7D0FF204610BD2DE9F84353
:4010000005460C46036813F4006F02D04FF0800801E04FF04008D5F8007207F00F07A26A012A19D9D4F82490E262561EB9F1000F00D026B940F27351254800F0D9FB32467D
:4010400049462846FFF7C4FFA36A1B1AA362072F00D9400048446062D5F80832C3F30803984533D0A36A012B30D10023A362072F02D8636A1E7801E0636A1E8800F025FCF4
:40108000C5F840624FF40073C5F8803FD5F8803F00F01FFCD5F8883F23F4007222F0010242F4007623F4EE6323F0030323B140F23641084800F09CFBC5F8886F236843F0E3
:4010C00002032360236B0BB101209847BDE8F883E44C0810244D08102DE9F04105460C46036813F4006F01D0802600E040267608A769D4F81C8017B1B8F1000F04D14FF41D
:401100009961314800F074FB424639462846FFF721FF236A03442362E3691B1AE36173BBA368FBB1E3689E4201D8013E00E05E1E2B6813F4006F01D0802300E040239E4210
:4011400004D34FF42371214800F052FBD5F8043323F0FF03F6B21E43C5F804630123C5F8C83F02E00023C5F8C83F636823F001036360236B33B304209847BDE8F081A169E8
:40118000D5F8002302F00F02072A00D940000844A0619E4216D95C1E2B6813F4006F01D0802300E040239C4204D34FF42371074800F01EFBD5F8043323F0FF02E3B21343B5
:4011C000C5F80433BDE8F081E44C0810244D0810002800F0A48170B50546002900F0A18116460C460B78022B03D93F21A24800F0FFFA637B023BDBB2062B03D940219E48C3
:4012000000F0F6FAA37B3BB1022B05D0032B03D04121994800F0ECFA94F82130012B03D94221954800F0E4FA94F82830012B03D94321914800F0DCFA2378012B06D8636856
:40124000083B082B94BF0023012307E0A37F2BB16368013B062B94BF002301231BB14521854800F0C5FAA368053B042B03D94621814800F0BDFA6369FF2B03D947217E48CC
:4012800000F0B6FAA369FF2B03D948217A4800F0AFFAA37C6BB1237833B9A368092B05D1A37B2BB1012304E0012302E0012300E000231BB14A21704800F09AFA636B23F45A
:4012C000366323F00D031BB14C216B4800F090FAE36B23F4EE6323F003031BB14D21664800F086FA2378022B01D1A37F13B16268013A00E00022237F13B14FF4803100E0E4
:401300000021A368082B02D84FF4006300E000230B4302F00F02134343F000732B60226B2B6813F4006F01D0802300E040239A4203D36221504800F05BFAA26B2B6813F4ED
:40134000006F01D0802300E040239A4203D36321494800F04DFA626A2B6813F4006F01D0802300E040239A4203D36421424800F03FFA23781B0603F040732B64637F0BB144
:40138000402200E00022A37C13B14FF4806300E000231343227C12B14FF4807200E000221343627C12B14FF4007200E000221A43E36A013B1B0403F470231343627B013A24
:4013C00002F007021343A27B120102F030021343AB64237B13B14FF4807200E00022E37B23B92378022B03D1012302E0012300E0002313B14FF4007300E000231A43A36862
:40140000013B03F00F031343C5F80033227DA3691B0403F47F031343C5F81033E26AD5F8003303F00F0303339A4201D3102A03D97A21114800F0DCF9E37F23B12378012B89
:4014400003D0002302E0002300E0012313B14FF4807200E00022637B013B03F007031A43A37B1B0103F0300313436B64237B2BB14FF4807203E000BF684D08100022A3682E
:40148000013B03F00F0313432278012A02D14FF4803200E000221343C5F8003294F83030C5F8043394F8203013B14FF0007200E0002294F82130012B02D14FF0807300E0A0
:4014C0000023134394F82820012A02D14FF4803200E00022134394F8242013432B6594F83830C5F80432636B23F4926323F002031B051B0DC5F8C83FE36B23F08C035B0569
:401500005B0DC5F8883F76B1002070603060B060F0603062F0623063044B736370BD04487047034870BD002070BD00BFEFCDAB000160AA000B694A69934202D34869181A42
:401540007047CA684869101A184470472DE9F04107460D46036813F4006F02D04FF0800801E04FF040084FEA5808D7F80863C6F308062C6926E00134EB689C4200D100243B
:401580006B699C420FD12B6B0BB1082098476B699C4208D10023C7F8C83F0CB1013C13E0EC68013C10E0D7F84023D7F8003303F00F03072B02D8AB681A5502E0AB6823F887
:4015C0001420013E002ED6D12C61EC6829463846FFF7B0FF201A804519D908B1441E00E000243B6813F4006F01D0802300E040239C4204D34FF42371064800F0F9F8D7F8C6
:40160000040320F0FF03E0B21843C7F80403BDE8F08100BF244D081038B504460D46D0F8003E13F0080F35D0D0F8CC3F13F448730AD04A681A434A60C0F8C03FD0F8C03F2B
:401640000B6B0BB110209847D4F8CC3F13F4006F09D06B6843F400636B604FF40063C4F8C03FD4F8C03FD4F8CC3F13F0010F11D0EB6923B129462046FFF72EFD05E0AB68BE
:401680001BB129462046FFF761FF0123C4F8C03FD4F8C03FD4F8003E13F0040F2ED0D4F88C3F13F4A0630AD02A681A432A60C4F8803FD4F8803F2B6B0BB120209847D4F834
:4016C0008C3F13F0010F08D029462046FFF796FC0123C4F8803FD4F8803FD4F88C3F13F4007F0BD00022C4F8882F2B6823F001032B60EA622B6B0BB10220984738BD00BF98
:4017000038B50D4B9A680D4B9A420FD10D46044621B940F237110A4800F06AF804F11003064A52F8230042F8235038BD1030054B53F8200038BD00BF00ED00E0004002088C
:40174000A84D08100000081048B338B504460D464368072B03D93221134800F049F8B4F900306268002B08DB5201D2B203F1604303F5614383F8002305E003F00F0352018D
:40178000D2B20A49CA540A4B9A680A4B9A4208D12946B4F90000FFF7B3FF002038BD06487047002038BD00BFA84D081014ED00E000ED00E0004002080100560010B50446B6
:4017C00005E0084B186800F077F8A4F50044B4F5004FF6D8044B186800FB04F000F06CF810BD00BFA8420208A442020801BEFEE738B50D46044C18220146204601F0E4F9C4
:40180000A5610020FFF7F2FFF0480208FEE700BF08B50268254BDA6142681A6282685A62C2689A620269DA6242691A6382695A63C2699A631E4A916AD963D16A1964516A40
:401840005964516B9964926BDA64F1EE103A13F0900F27D0026A154B1A65426A5A65826A9A65C26ADA65026B1A66426B5A66826B9A66C26BDA66026C1A67426C5A67826CE9
:401880009A67C26CDA67026DC3F88020426DC3F88420826DC3F88820C26DC3F88C20026EC3F89020FFF7B2FF08BD00BFF048020800ED00E0000000000230800803D0013025
:4018C0000238FCD100BF00BF7047EFF3108072B6704780F310887047014B1860704700BF944B020870B539B900240AE015F8010BFEF732FF013402E016460D460024B44232
:40190000F4DB204670BD00BF70B561B900240FE0FEF72EFFC0B2287001340A2808D00D2806D0013502E016460D460024B442EFDB204670BD08B502490248FFF76DFE08BD08
:40194000984B02080000664008B5114B1B785BB9104A11491148FFF73BFC11491148FFF7F3FE01220A4B1A700E4BB3F90030002B08DB590903F01F03012202FA03F30A4A1B
:4019800042F82130054A136843F00043136008BD844B0208984B02085C4F08100000664035190810DC4B081000E100E081F0004102E000BF83F0004330B54FEA41044FEAEA
:4019C000430594EA050F08BF90EA020F1FBF54EA000C55EA020C7FEA645C7FEA655C00F0E2804FEA5454D4EB5555B8BF6D420CDD2C4480EA020281EA030382EA000083EA20
:401A0000010180EA020281EA0303362D88BF30BD11F0004F4FEA01314FF4801C4CEA113102D0404261EB410113F0004F4FEA03334CEA133302D0524263EB430394EA050F71
:401A400000F0A780A4F10104D5F1200E0DDB02FA0EFC22FA05F2801841F1000103FA0EF2801843FA05F359410EE0A5F120050EF1200E012A03FA0EFC28BF4CF0020C43FA1B
:401A800005F3C01851EBE37101F0004507D54FF0000EDCF1000C7EEB00006EEB0101B1F5801F1BD3B1F5001F0CD349085FEA30004FEA3C0C04F101044FEA445212F5800F49
:401AC00080F09A80BCF1004F08BF5FEA500C50F1000041EB045141EA050130BD5FEA4C0C404141EB010111F4801FA4F10104E9D191F0000F04BF01460020B1FA81F308BF2C
:401B00002033A3F10B03B3F120020CDA0C3208DD02F1140CC2F10C0201FA0CF021FA02F10CE002F11402D8BFC2F1200C01FA02F120FA0CFCDCBF41EA0C019040E41AA2BF8B
:401B400001EB0451294330BD6FEA04041F3C1CDA0C340EDC04F11404C4F1200220FA04F001FA02F340EA030021FA04F345EA030130BDC4F10C04C4F1200220FA02F001FA0B
:401B800004F340EA0300294630BD21FA04F0294630BD94F0000F83F4801306BF81F480110134013D4EE77FEA645C18BF7FEA655C29D094EA050F08BF90EA020F05D054EA10
:401BC000000C04BF1946104630BD91EA030F1EBF0021002030BD5FEA545C05D14000494128BF41F0004130BD14F580043CBF01F5801130BD01F0004545F0FE4141F47001B1
:401C00004FF0000030BD7FEA645C1ABF194610467FEA655C1CBF0B46024650EA013406BF52EA033591EA030F41F4002130BD00BF90F0000F04BF0021704730B54FF48064B6
:401C400004F132044FF000054FF0000150E700BF90F0000F04BF0021704730B54FF4806404F1320410F0004548BF40424FF000013EE700BF42004FEAE2014FEA31014FEA6A
:401C800002701FBF12F07F4393F07F4F81F06051704792F0000F14BF93F07F4F704730B54FF4607401F0004521F0004120E700BF50EA010208BF704730B54FF000050AE062
:401CC00050EA010208BF704730B511F0004502D5404261EB41014FF4806404F132045FEA915C3FF4DCAE4FF003025FEADC0C18BF03325FEADC0C18BF033202EBDC02C2F196
:401D0000200300FA03FC20FA02F001FA03FE40EA0E0021FA02F11444C1E600BF70B54FF0FF0C4CF4E06C1CEA11541DBF1CEA135594EA0C0F95EA0C0F00F0DEF82C4481EAF7
:401D4000030621EA4C5123EA4C5350EA013518BF52EA033541F4801143F4801338D0A0FB02CE4FF00005E1FB02E506F00042E0FB03E54FF00006E1FB03569CF0000F18BF5A
:401D80004EF0010EA4F1FF04B6F5007F64F5407404D25FEA4E0E6D4146EB060642EAC62141EA55514FEAC52040EA5E504FEACE2EB4F1FD0C88BFBCF5E06F1ED8BEF1004FA9
:401DC00008BF5FEA500E50F1000041EB045170BD06F0004646EA010140EA020081EA0301B4EB5C04C2BFD4EB0C0541EA045170BD41F480114FF0000E013C00F3AB8014F10D
:401E0000360FDEBF002001F0004170BDC4F10004203C35DA0C341BDC04F11404C4F1200500FA05F320FA04F001FA05F240EA020001F0004221F0004110EBD37021FA04F609
:401E400042EB06015EEA430E08BF20EAD37070BDC4F10C04C4F1200500FA04F320FA05F001FA04F240EA020001F0004110EBD37041F100015EEA430E08BF20EAD37070BD1B
:401E8000C4F1200500FA05F24EEA020E20FA04F301FA05F243EA020321FA04F001F0004121FA04F220EA020000EBD3705EEA430E08BF20EAD37070BD94F0000F0FD101F010
:401EC0000046400041EB010111F4801F08BF013CF7D041EA060195F0000F18BF704703F00046520043EB030313F4801F08BF013DF7D043EA0603704794EA0C0F0CEA135556
:401F000018BF95EA0C0F0CD050EA410618BF52EA4306D1D181EA030101F000414FF0000070BD50EA410606BF1046194652EA430619D094EA0C0F02D150EA013613D195EA1F
:401F40000C0F05D152EA03361CBF104619460AD181EA030101F0004141F0FE4141F470014FF0000070BD41F0FE4141F4780170BD70B54FF0FF0C4CF4E06C1CEA11541DBFE0
:401F80001CEA135594EA0C0F95EA0C0F00F0A7F8A4EB050481EA030E52EA03354FEA013100F088804FEA03334FF0805545EA131343EA12634FEA022245EA111545EA106536
:401FC0004FEA00260EF000419D4208BF964244F1FD0404F5407402D25B084FEA3202B61A65EB03055B084FEA32024FF480104FF4002CB6EB020E75EB030E22BFB61A754676
:4020000040EA0C005B084FEA3202B6EB020E75EB030E22BFB61A754640EA5C005B084FEA3202B6EB020E75EB030E22BFB61A754640EA9C005B084FEA3202B6EB020E75EB81
:40204000030E22BFB61A754640EADC0055EA060E18D04FEA051545EA16754FEA06164FEAC30343EA52734FEAC2025FEA1C1CC0D111F4801F0BD141EA00014FF000004FF016
:40208000004CB6E711F4801F04BF01430020B4F1FD0C88BFBCF5E06F3FF6AFAEB5EB030C04BFB6EB020C5FEA500C50F1000041EB045170BD0EF0004E4EEA113114EB5C040B
:4020C000C2BFD4EB0C0541EA045170BD41F480114FF0000E013C90E645EA060E8DE60CEA135594EA0C0F08BF95EA0C0F3FF43BAF94EA0C0F0AD150EA01347FF434AF95EA39
:402100000C0F7FF425AF104619462CE795EA0C0F06D152EA03353FF4FDAE1046194622E750EA410618BF52EA43067FF4C5AE50EA41047FF40DAF52EA43057FF4EBAE12E7FA
:4021400002440346934202D003F8011BFAE770472DE9F04788B0002B149F1299109EDDF84CA01D4627F02007BBBF03F100431D4600232D231446B8BF1446462F0B7003D0E7
:40218000452F03D1013601E0032300E0022307AA049206AA03928DE8480422462B4600F0B7FD472F804602D1119BDB0728D5462F08EB060911D198F80030302B0AD10022BF
:4021C00000232046294602F033FC18B9C6F10106CAF80060DAF800309944002200232046294602F025FC08B9302202E0CDF81C9006E0079B994503D9591C07911A70F8E7EB
:40220000079B159AC8EB03034046136008B0BDE8F08773B503460029B8BF494203F8022BB4BF2D222B220929427019DD0DF1070216460A2591FBF5F405FB14113031092C58
:4022400002F8011D2146F5DC3031541E02F8011CB4421A460AD214F8012B03F8012BF7E730241A46214402F8024B5970101A02B070BD00002DE9F04F91B00C46DDF86880DE
:4022800016461F46054601F05BFC03680893184600F092FC00230E93D8F800300990073323F0070303F1080294F818A0D4F800B0C8F80020D3E90023C4E91223D4E912897D
:4022C00029F000430B93CDF828804FF0FF32A74BDDE90A0102F0DEFBA0B94FF0FF32A34BDDE90A0102F0B8FB60B9002200234046494602F0A7FB10B12D2384F843309C4B5E
:402300009C4A0AE042464B464046494602F0C2FB002800F09281984B984ABAF1470F8CBF90469846032323612BF0040323604FF000093DE0BAF1670F00F08A81BAF1470F2F
:4023400000F08681236000210DF133020193636805900292009342464B460691CDF810A0CDF80CE02846FFF7F3FE0AF0DF03472B804600F08481BAF1650F0D9900F28D817B
:402380000139524604F150000D91FFF742FF0E9A8318012A8146236100F37C812268D10700F178819DF8333013B12D2384F84330009733460FAA2146284600F09FF90130EA
:4023C00002D14FF0FF3096E123685A0501D4236965E0BAF1650F40F2D58000220023D4E9120102F025FB78B30123654A31462846B8470130E5D00E9B0D9A9A420BDB236863
:40240000D80708D423689B0740F111814FF0000804F1190906E1099B089A31462846B8470130CED04FF0000804F11A090E9B013B9845E7DA01234A4631462846B847013008
:40244000BFD008F10108F1E70D9B002B29DC01234B4A31462846B8470130B2D00D9B23B90E9B13B92368D907CCD5099B089A31462846B8470130A4D04FF0000904F11A0A96
:402480000D9B5B42994509DA0123524631462846B847013095D009F10109F1E70E9B4246A7E00E9AA36D9A42A8BF1A46002A914606DC4FF0000A29EAE97904F11A0B11E045
:4024C0001346314642462846B8470130F1D178E701235A4631462846B84701303FF471AF0AF1010AA36DC9EB03029245F0DB08EB03090D9A0E9B9A420FDB2368DA070CD4C7
:402500000E9B0D9A9844C9EB08089B1A9845A8BF9846B8F1000F08DC0FE0099B089A31462846B8470130EBD14BE743464A4631462846B84701303FF444AF4FF0000928EA52
:40254000E87804F11A0A09E00123524631462846B84701303FF435AF09F101090D9A0E9B9B1AC8EB03039945EEDB4BE7FFFFEF7FA44F0810A84F0810AC4F0810B04F0810C6
:40258000B44F08100E9A012A01DCDB0738D50123424631462846B84701303FF412AF099B089A31462846B84701303FF40AAF00220023D4E9120102F03BFA20B14FF0000811
:4025C00004F11A0A0EE00E9B08F10102013B19E00123524631462846B84701303FF4F1AE08F101080E9B013B9845F1DB4B4604F1500231462846B84701307FF403AFE0E6EF
:402600000123424631462846B8470130EED1D8E601234A4631462846B84701303FF4D1AE08F10108E3680F9A9B1A9845F0DBE0680F9B9842B8BF18465DE06268531C0EA8C1
:402640004BF480630DF1340E7FF474AE062201E012B90122626075E6002106910DF133018DE80C00236005904246CDF810A0CDF80CE002914B462846FFF76AFD80460D9BC1
:40268000D81C02DB626893421DDDAAF1020A5FFA8AFA70E60133236184E6BAF1660F14D10029636807DD216113B92268D2071DD501330B4419E013B92268D00701D5023380
:4026C00013E0012311E04FF0670A0D9B0E9A934205DB22682361D10708D5013305E0002BD4BFC3F102030123134423610D9BA3654FF0000956E611B0BDE8F08F2DE9F04765
:4027000091461F460A698B68DDF820809342B8BF1346C9F8003091F8432006460C4612B10133C9F800302368990642BFD9F800300233C9F80030256815F0060510D104F1B5
:40274000190A07E00123524639463046C04701301AD00135E368D9F800209B1A9D42F1DB94F843302268003318BF012392060FD5E1185A1C302081F84300224494F84510B5
:4027800082F84310023303E04FF0FF30BDE8F08704F1430239463046C0470130F4D02268D9F80050E36802F00602042A08BF5D1B2269A3680CBF25EAE57500259342C4BFDB
:4027C0009B1AED184FF000091A344D4509D00123224639463046C0470130D5D009F10109F3E70020BDE8F0872DE9F04317460A7E85B06E2A984606460C460C9B01F1430E45
:4028000000F0AE8011D8632A22D009D8002A00F0BB80582A40F0CA8081F84520834955E0642A1ED0692A1CD0C0E0732A00F0B08009D86F2A2ED0702A40F0B8800A6842F08B
:4028400020020A603EE0752A24D0782A3AD0ADE01A6801F14205111D1960136884F84230A8E021681A6811F0800F02D0111D196008E011F0400F02F10401196002D0B2F955
:40288000003000E01368002B3CDA2D225B4284F8432037E021681A6811F0800F02D0111D196007E011F0400F02F10401196001D0138800E01368227E5C496F2A14BF0A220A
:4028C00008221BE078225A4984F845202268186812F0800F00F104051D6003D1550601D5038800E00368D00744BF42F0200222601BB9226822F0200222601022002084F816
:40290000430001E049490A226568A560002D08DB206820F0040020602BB9002D7DD175460CE0002B79D07546B3FBF2F002FB1033CB5C05F8013D03460028F5D1082A0BD10B
:402940002368DA0708D5236962689A42DEBF302305F8013C05F1FF35C5EB0E0323612EE008681A68496910F0800F03D0101D1860136808E010F0400F02F1040018601368EE
:4029800001D0198000E0196000232361754616E01A68111D1960156862680021284601F03FF908B1401B6060636804E004F1420584F8422001232361002384F84330CDF8B8
:4029C00000803B4603AA21463046FFF797FE013002D14FF0FF3026E023692A4639463046C0470130F5D023689B0710D5002504F1190907E001234A4639463046C047013045
:402A0000E7D00135E368039A9B1A9D42F2DBE068039B9842B8BF184605E00B7884F8423004F142058AE705B0BDE8F083B64F0810C74F08100FB40A4B13B51C6824B1A3696B
:402A400013B9204600F0F2FF05AB049AA1680193204601F0FBFC02B0BDE8104004B070470C4302082DE9F7431D464F4B1E6804460F46904626B1B36913B9304600F0D6FF5D
:402A80004A4B9C4201D1746808E0494B9C4201D1B46803E0474B9C4208BFF468B8F1020F04D0B8F1010F79D8002D77DB2146304600F052FF616B41B104F14403994202D05B
:402AC000304601F0EDFB002363630023A3616360A3891B0603D52169304601F0E1FBA38923F44A6323F00303B8F1020FA3811ED001AB6A462146304601F026F8A38918431E
:402B0000A0810DB9009D00E02FBB284601F07CF80746D0B9DDF80090A94502D14FF0FF3006E0484601F070F8074678B9F6E70020A38943F00203A3810023A36004F14703D5
:402B400023602361012363612AE0A946A38943F08003A3814D46B36913B9304600F066FFB8F1010F08BFA389276004BF43F00103A381A389276103F0080080B2656158B120
:402B800013F001034FF000001DBF6D42A060A561A56008BF184603E0A06001E04FF0FF3003B0BDE8F08300BF0C430208E84F08100850081028500810034613F8012B002A06
:402BC000FBD1181A0138704710B5034642B111F8014B03F8014B013A002CF7D11A4400E010BD934202D003F8014BFAE710BD2DE9F74F03690C699C42804600F38380013C60
:402C000001F114074FEA840E00F1140657F8245006EB0E030193013556F82430B3FBF5F507EB0E09002D39D04FF0000A3846B446D34650F8042B93B205FB03A34FEA134AD7
:402C40009BB2C3EB0B03120CBCF800B005FB02A213FA8BF34FEA124A1FFA82FBDCF80020CBEB124202EB23429BB243EA024381454FEA224B4CF8043BDBD256F80E306BB914
:402C8000019B043B9E421A4602D3C8F8104005E01268043B002AF8D1013CF3E7404601F028FA00282CDB013530464FF0000E57F8041BD0F800C08AB2C2EB0E03090C13FA99
:402CC0008CF3C1EB1C4202EB23429BB243EA0243B9454FEA224E40F8043BE8D256F8242006EB840362B9043B9E421A4602D3C8F8104005E01268043B002AF8D1013CF3E731
:402D0000284600E0002003B0BDE8F08F000000002DE9F04F456A97B08246239CCDE9022345B9102000F070FFCAF82400456085600560C560DAF82430196859B15A684A60FD
:402D4000012393408B60504600F0FAFFDAF8243000221A60039BA04A002BBFBF01232360039B23F00043B8BF0393DDF80C80A4BF0023236028F000431B0D1B0593421DD187
:402D8000229A42F20F731360029B43B9934A944BC8F31300002814BF1846104600E09048249B002B00F04A85C37813B100F1080300E0C31C249A136000F040BDDDE9024516
:402DC000002200232046294601F032FE074658B1229A01231360249B002B00F0228581481860013800F02ABD14AB019315AB009322462B46504601F0F7F9C8F30A56059077
