:020000041008E2
:4000000000780408EB0208100D00000051030810510308105103081051030810000000000000000000000000000000004D0308104D030810000000004D0308104D030810DA
:400040004D0308104D0308104D0308104D0308104D0308104D0308104D0308104D0308104D0308104D0308104D0308104D0308104D0308104D0308104D0308104D03081000
:400080004D0308104D0308104D0308104D0308104D0308104D0308104D0308104D0308104D0308104D0308104D0308104D0308104D0308104D0308104D0308104D030810C0
:4000C0004D0308104D0308104D0308104D0308104D0308104D0308104D0308104D0308104D0308104D0308104D0308104D0308104D0308104D0308104D0308104D03081080
:400100004D0308104D0308104D0308104D0308104D0308104D0308104D0308104D0308104D0308104D0308104D0308104D0308104D0308104D0308104D0308104D0308103F
:400140004D0308104D0308104D0308104D0308104D0308104D0308104D0308104D0308104D0308104D0308104D0308104D0308104D0308104D0308104D0308104D030810FF
:400180004D0308104D0308104D0308104D0308104D0308104D0308104D0308104D0308104D0308104D0308104D0308104D0308104D0308104D0308104D0308104D030810BF
:4001C0004D0308104D0308104D0308104D0308104D0308104D0308104D0308104D0308104D0308104D0308104D0308104D0308104D0308104D0308104D0308104D0308107F
:400200004D0308104D0308104D0308104D0308104D0308104D0308104D0308104D0308104D0308104D0308104D0308104D0308104D0308104D0308104D0308104D0308103E
:400240004D0308104D0308104D0308104D0308104D0308104D0308104D0308104D0308104D0308104D0308104D0308104D0308104D0308104D0308104D0308104D030810FE
:400280004D0308104D0308104D03081010B5054C237833B9044B13B10448AFF300800123237010BD4C4902080000000068380810084B10B51BB108490848AFF30080084816
:4002C000036803B910BD074B002BFBD0BDE81040184700BF00000000504902086838081018430208000000007047FFF7FDFF72B6104C114DAC4209DA21686268A368043BF6
:40030000A2BFC858D050FAE70C34F3E70B490C4A00209142BCBF41F8040BFAE709480A490860BFF34F8F00F031FB00F00BFB00F0A5F9FEE76C380810843808104C49020890
:40034000D84C02080040020808ED00E0FEE7FEE700B504207146084202D0EFF3098001E0EFF30880043001F0CDFAFEE70F2800F2A980DFE800F008121C26303A444E586218
:400380006C76808A949E504B01225A6002225A6004225A6008225A6070474B4B01229A6002225A6004225A6008225A607047464B01225A6002229A6004225A6008225A60F2
:4003C0007047414B01229A6002229A6004225A6008225A6070473C4B01225A6002225A6004229A6008225A607047374B01229A6002225A6004229A6008225A607047324B52
:4004000001225A6002229A6004229A6008225A6070472D4B01229A6002229A6004229A6008225A607047284B01225A6002225A6004225A6008229A607047234B01229A6024
:4004400002225A6004225A6008229A6070471E4B01225A6002229A6004225A6008229A607047194B01229A6002229A6004225A6008229A607047144B01225A6002225A6050
:4004800004229A6008229A6070470F4B01229A6002225A6004229A6008229A6070470A4B01225A6002229A6004229A6008229A607047054B01229A6002229A6004229A60FB
:4004C00008229A60704700BF800432400F2800F2D180DFE810F010001C002800340040004C005800640070007C0088009400A000AC00B800C400604B20225A6040225A60C8
:40050000A3F5C07304225A6008225A6070475A4B20229A6040225A60A3F5C07304225A6008225A607047544B20225A6040229A60A3F5C07304225A6008225A6070474E4B5C
:4005400020229A6040229A60A3F5C07304225A6008225A607047484B20225A6040225A60A3F5C07304229A6008225A607047424B20229A6040225A60A3F5C07304229A609C
:4005800008225A6070473C4B20225A6040229A60A3F5C07304229A6008225A607047364B20229A6040229A60A3F5C07304229A6008225A607047304B20225A6040225A6009
:4005C000A3F5C07304225A6008229A6070472A4B20229A6040225A60A3F5C07304225A6008229A607047244B20225A6040229A60A3F5C07304225A6008229A6070471E4B6C
:4006000020229A6040229A60A3F5C07304225A6008229A607047184B20225A6040225A60A3F5C07304229A6008229A607047124B20229A6040225A60A3F5C07304229A60BB
:4006400008229A6070470C4B20225A6040229A60A3F5C07304229A6008229A607047064B20229A6040229A60A3F5C07304229A6008229A60704700BF8004324070B584B06D
:4006800062B6022000F0C4F900F0C2FA01F0A8FB01F0C0FB01F086FB344800F0E3FA41F2883001F0FBF800F0A7FA0024304B1B6913F0200F05D014B92E4800F0D3FA0134ED
:4006C000F4E700F099FA2C4800F0CCFA00263AE03046FFF74BFE012001F0E0F800242FE02046FFF7F3FE012001F0D8F801F05AFB012001F069FB214B1B6803EB83039A0078
:400700001F4B1A44536823B94FF476711D4801F0E9F800211C4801F0EDFA02461B49684601F0C6FB69461A4801F0AAFB194D6946284600F08BFE1849284600F087FE013474
:40074000072CCDDD0136072EC2DD1449114800F07DFE00F051FA124800F084FA40F6B83001F09CF800F048FA00249FE79031081080023240A8310810BC310810604B020876
:4007800040370810D031081000001D41F0310810F431081000006640F8310810FC3108100032081008B5012000F03AFE08BD00BF704700BF5C4AD2F8803303F00F0303F12B
:4007C000D00152F8212002F00702032A04D0042A05D092B9554914E0554A116811E003F1C002514951F8222002F01F02112A06D0132A04D04FF4FA4103E04E4901E04FF48C
:4008000000418BBB484BD3F8902502F00100D3F88825C2F30172D3F8883513F0405F07D0414BD3F88835C3F30173012B02D102E0012300E0002303B108B9032A46D13A4809
:40084000D0F88025C2F31103D0F88425C2F30C02D0F88005C0F300600130B1FBF2F202FB03F2B2FBF0F131E0012B2FD12E4BD3F8402602F00100D3F80026C2F30172D3F8AF
:40088000003613F0405F07D0274BD3F80036C3F30173012B02D102E0012300E0002303B108B9032A12D12048D0F8002602F07F02D0F80036C3F30423D0F80006C0F30440F6
:4008C00002FB01F2B2FBF3F2B2FBF0F1164BD3F88033C3F3011321FA03F215494A601648D0F89030C3F3072301330069000E0130B2FBF0F08860B2FBF3F3CB600B6103F5EE
:40090000742202F23F220D48A0FB0202C2F387420A7503F2E7330A4AA2FB03239B098B61DB03CB61704700BF0000264000127A008C42020800366E010000214083DE1B4316
:40094000D34D621008B50D4801F03EF8FFF730FFFFF730FF00221146042000F029FB084800F0BCFB074B1B6893F8513013B1064800F024FC00F066FA08BD00BF1036081085
:4009800068490208704C0208CC32081008B501F014F8074AD2F8883043F47003C2F88830BFF34F8FBFF36F8F01F00BF808BD00BF00ED00E0124BD3F8CC3F13F0040F1DD03C
:4009C0000F4BD3F8C02F02F00402C3F8C02FD3F84033DBB25A1ED2B2FD2A0FD8094A11680948435412680132084B1340002B03DA013B63F07F030133024A1360704700BFE3
:400A000000006640E84A0208744B02087F00008010B5114C1149204600F006FFB4F90030002B08DB5A0903F01F000121814060320B4840F82210002B08DB590903F01F031E
:400A4000012202FA03F3064A42F821300022054B1A7000F019F910BD08330810B509081000E100E0F84A020800B5C0F300131BB94022134B5A6002E04022114B9A60C0F36F
:400A800040131BB902220E4B5A6002E002220C4B9A60C0F380131BB90422094B5A6002E00422074B9A60C00920B90822044B5A605DF804FB0822024B9A605DF804FB00BF32
:400AC00000053240F8B50746012000F0E7FE0F4C04236360012000F0E1FE08256560642000F0F4FE1026A6603846FFF7BDFF4FF4E17000F0EBFE6660054B5D60142000F032
:400B0000E5FE642000F0CAFEF8BD00BF80023240000532402DE9F0410646174C0423636008276760642000F0D1FE1025A5603046FFF79AFF4FF4E17000F0C8FE6560DFF879
:400B40003C80C8F80470142000F0C0FE4FF4487000F0BCFEA560300100F0F000FFF784FF4FF4E17000F0B2FE6560C8F80470642000F094FEBDE8F0818002324000053240BB
:400B80002DE9F0410646012000F088FE184C0423A360012000F082FE08276760642000F095FE1025A5603046FFF75EFF4FF4E17000F08CFE6560DFF83C80C8F804704FF40F
:400BC000487000F083FEA560300100F0F000FFF74BFF4FF4E17000F079FE6560C8F80470142000F073FE012000F058FEBDE8F081800232400005324008B50120FFF78AFFA8
:400C000008BD00BF08B540F08000FFF783FF08BD08B5282000F042FE3020FFF753FF052000F03CFE3020FFF74DFF642000F04EFE3020FFF747FF2020FFF744FF2C20FFF7D1
:400C400069FF0F20FFF766FF0120FFF763FF0220FFF760FF0620FFF75DFF0020FFF7D2FF08BD00BF38B50546002405E0FFF788FF01340A2000F012FE285D0028F6D10A20F4
:400C800000F00CFE38BD00BF08B5084B1B783BB9074A0849084800F0F1FB0122034B1A70054A136843F00043136008BDF84A0208384C020810330810000066401F4B98428F
:400CC0002DD00CD840282ED003D8E8B1102828D02FE0802829D0B0F5807F28D029E0184B984228D006D8B0F1204F0DD0154B984212D01EE0144B98420AD00133984209D0A0
:400D0000023B984215D101E0002070470F4870470F4870470F4870474FF4A0007047074870470D4870470D4870470D487047034870470C4870474FF4A4007047060052000D
:400D4000010000F0090000A0040000F0010052000200520003005200010050000200500005005200FF00520038B5124B1B6893F83130012B04D840F2C3110F4800F0B2FDE1
:400D80000C4B1D682A6AB5F8B03013442C46D5F8B420D358002B0BDB084B1868FFF78EFF6B6801229A6063689B68002BFBD138BD034838BD704C020850330810FC4A02089F
:400DC000020050001A4B186128B102230370FF23437000234380174B1B6893F850202AB300B583B0B3F93830ADF80030002301931149684600F018FDBDF90030002B08DB51
:400E0000590903F01F03012202FA03F30B4A42F82130084B1B6893F8513023B102220849012000F077FA03B05DF804FB704700BFFC4A0208704C02088943020800E100E06F
:400E40004144020808B50248FFF7BCFF08BD00BF104B020838B50B4B1B68D3F8B4301B58002B0DDA0D4604460B0C1B0423B140F2D521054800F036FDA9B26160002038BDD8
:400E8000024838BD704C02089033081001008A0038B50368002B01DA002300E0094B73B90D460446C2600B0C1B0423B140F2BB21054800F017FDA9B2A160002038BD014804
:400EC00038BD00BF01008A009033081038B504460D4619B99921084800F004FD074B1B68D3F8B4301B59002B03DAE3682B60002038BD034838BD00BFD0330810704C0208B6
:400F000001008A00254B1B6893F8313083423AD900293AD00B6813F01F0F38D170B50D4604461E4B1B6893F83130984204D340F2C3111B4800F0D6FC184B1B68186AB3F806
:400F4000B03004FB0304174E34602A68D2080021686800F08DFF00212046FFF77BFF346825B940F293310E4800F0BCFC2A4600212046FFF78DFF60B900210A4B1868FFF7D6
:400F800069FF40B970BD084870470748704706487047064870BD054870BD00BF704C020890330810144B020803018A0001018A0010B504461346B2B9A9B9124B1B6893F819
:400FC0003130984204D340F2C3110F4800F08AFC0C4B1B681A6AB3F8B03004FB03240B4B1C60002010BD43B149B1084A51609360111D2046FFF786FF10BD054810BD044818
:4010000010BD00BF704C020890330810144B020803018A002DE9F0411B4B1B68DC68236883422CD90D464609A0EB4610012303FA00F819B900F0C1FC074600E00027124BF7
:4010400018680368002B01DA002300E00F4B83B9626852F8263018EA030F05D023EA080342F82630002400E0094C0021FFF7F2FE00E0084C25B9384600F0A3FC00E0064C3A
:401080002046BDE8F08100BF144B020801008A00020188000301880004018A000B4B1B68DB681A6882420CD94109A0EB4110012202FA00F05B6853F82130184203D0044807
:4010C0007047044870470448704700BF144B02080101880004018A0000018800024B1B680BB9014B18607047204B02082DE9F8430446884691461D46089F2C4B1B681BB9CD
:40110000B5212B4800F0EEFB284B1B682C2000FB04F01C18EEB21E50C5F3072363602D0CA560244B1B6893F831309E4204D340F2C311214800F0D6FB1E4B1B68196AB3F858
:40114000B02006FB02162661666893F832309E4204D340F2DF11184800F0C4FB154B1B681D6A803605EB46156561A668330C1B0423B14FF4FF71104800F0B4FB330C1B04E3
:4011800023B140F2FF110C4800F0ACFBB3B243EA0646AE60C4F81C90C4F820800023A36117B1B7F90030A381BDE8F883204B020810340810704C020890330810F0B58FB015
:4011C000044618B95221274800F08CFBA369072B03D95621234800F085FBE36A1BB95821204800F07FFB236B1BB959211D4800F079FB07AD04F114060FCE0FC537682F605C
:4012000002AD26460FCE0FC533682B60164B1B68B3F93620079B1344ADF83030089B0D93A26AE16A0CAD00953B460A98FFF75EFF00210091069B0A460598FFF757FF216B62
:40124000284600F0F1FABDF93030002B08DB590903F01F03012202FA03F3044A42F821300FB0F0BD10340810704C020800E100E0F8B506460F461D4614461AB9FD211F48EA
:4012800000F030FB1E4B1B681BB9FE211B4800F029FB1B4B1B682C2101FB063001FB07314B68012202FA03F31B04466802FA06F60269EAB18F69EFB91268002A01DA00224D
:4012C00000E0104AC2B92288134323600369DC6001238B614D620469330C1B0423B140F2BB21094800F0FEFAB2B2A2600020F8BD0648F8BD0648F8BD0548F8BD10340810CA
:40130000204B020801008A009033081004028A0007028A00F8B505460F4616460E4B1B6823B94FF4AF710D4800F0DCFA0A4B1B682C2404FB0534236A23B94FF4B171074853
:4013400000F0D0FAE369B34204D9236A43F826700020F8BD0248F8BD204B0208103408100A028A0070B582B000230193044620B940F2D111284800F0B5FA236923B94FF4FD
:40138000E971254800F0AEFA636923B940F2D311214800F0A7FA236A23B94FF4EA711E4800F0A0FA6369DD682A0C20D012041A601B682069194B1B68D3F8B430C358002B70
:4013C00015DA01A9FFF782FD60B9019803681E0CDBB2E269934206D2226A52F8233013B1984700E0002631462069FFF733FDADB275B16369ADB21D601B68636A1BB19847F3
:401400000023636202E0A36A03B198470023A36163691B6802B070BD10340810704C020810B50446074B1B6823B940F2B111064800F058FA034B1B682C2000FB0430FFF745
:4014400091FF10BD204B02081034081030B4036813F4006F01D0802200E04022002408E0D0F80832C3F308039A42F9D0C0F8405201340D5D002DF3D130BC7047002800F0BB
:40148000A48170B50546002900F0A18116460C460B78022B03D93F21A24800F023FA637B023BDBB2062B03D940219E4800F01AFAA37B3BB1022B05D0032B03D0412199487B
:4014C00000F010FA94F82130012B03D94221954800F008FA94F82830012B03D94321914800F000FA2378012B06D86368083B082B94BF0023012307E0A37F2BB16368013B5C
:40150000062B94BF002301231BB14521854800F0E9F9A368053B042B03D94621814800F0E1F96369FF2B03D947217E4800F0DAF9A369FF2B03D948217A4800F0D3F9A37CE4
:401540006BB1237833B9A368092B05D1A37B2BB1012304E0012302E0012300E000231BB14A21704800F0BEF9636B23F4366323F00D031BB14C216B4800F0B4F9E36B23F45F
:40158000EE6323F003031BB14D21664800F0AAF92378022B01D1A37F13B16268013A00E00022237F13B14FF4803100E00021A368082B02D84FF4006300E000230B4302F063
:4015C0000F02134343F000732B60226B2B6813F4006F01D0802300E040239A4203D36221504800F07FF9A26B2B6813F4006F01D0802300E040239A4203D36321494800F04D
:4016000071F9626A2B6813F4006F01D0802300E040239A4203D36421424800F063F923781B0603F040732B64637F0BB1402200E00022A37C13B14FF4806300E00023134352
:40164000227C12B14FF4807200E000221343627C12B14FF4007200E000221A43E36A013B1B0403F470231343627B013A02F007021343A27B120102F030021343AB64237B7F
:4016800013B14FF4807200E00022E37B23B92378022B03D1012302E0012300E0002313B14FF4007300E000231A43A368013B03F00F031343C5F80033227DA3691B0403F4FF
:4016C0007F031343C5F81033E26AD5F8003303F00F0303339A4201D3102A03D97A21114800F000F9E37F23B12378012B03D0002302E0002300E0012313B14FF4807200E013
:401700000022637B013B03F007031A43A37B1B0103F0300313436B64237B2BB14FF4807203E000BFD43408100022A368013B03F00F0313432278012A02D14FF4803200E0EC
:4017400000221343C5F8003294F83030C5F8043394F8203013B14FF0007200E0002294F82130012B02D14FF0807300E00023134394F82820012A02D14FF4803200E000229F
:40178000134394F8242013432B6594F83830C5F80432636B23F4926323F002031B051B0DC5F8C83FE36B23F08C035B055B0DC5F8883F76B1002070603060B060F060306263
:4017C000F0623063044B736370BD04487047034870BD002070BD00BFEFCDAB000160AA0038B50D4B9A680D4B9A420FD10D46044621B940F237110A4800F074F804F11003B7
:40180000064A52F8230042F8235038BD1030054B53F8200038BD00BF00ED00E000400208143508100000081048B338B504460D464368072B03D93221134800F053F8B4F936
:4018400000306268002B08DB5201D2B203F1604303F5614383F8002305E003F00F035201D2B20A49CA540A4B9A680A4B9A4208D12946B4F90000FFF7B3FF002038BD0648FE
:401880007047002038BD00BF1435081014ED00E000ED00E0004002080100560010B5044605E0084B186800F07FF8A4F50044B4F5004FF6D8044B186800FB04F000F074F802
:4018C00010BD00BFA8420208A442020808B5034B1B7800FB03F000F067F808BDA042020801BEFEE738B50D46044C18220146204600F045FBA5610020FFF7F2FFB84802088A
:40190000FEE700BF08B50268254BDA6142681A6282685A62C2689A620269DA6242691A6382695A63C2699A631E4A916AD963D16A1964516A5964516B9964926BDA64F1EEFE
:40194000103A13F0900F27D0026A154B1A65426A5A65826A9A65C26ADA65026B1A66426B5A66826B9A66C26BDA66026C1A67426C5A67826C9A67C26CDA67026DC3F880203E
:40198000426DC3F88420826DC3F88820C26DC3F88C20026EC3F89020FFF7B2FF08BD00BFB848020800ED00E00230800803D001300238FCD100BF00BF7047EFF3108072B6C0
:4019C000704780F310887047014B1860704700BF704C02082DE9F8430E46074618B93A217548FFF77FFF1EB93B217348FFF77AFF002F00F0DA80002E00F0DA8032686F4B7D
:401A000013401BB14A216C48FFF76CFF72686C4B13401BB14B216848FFF764FFB36813F0FC2F03D04C216448FFF75CFFF36813F0FC2F03D04D216048FFF754FF337D032BC3
:401A400003D94E215C48FFF74DFFB369B3F5803F03D34F215848FFF745FFF36D072B03D950215548FFF73EFF336EB3F5803F03D351215148FFF736FF736EB3F5803F03D3B1
:401A800052214D48FFF72EFF736843F000437B60B3683B61F3687B613369BB61337D9B07FB61B3693B62336803F46068736803F00409002435E02546A31D06EB83035A68F0
:401AC000404B13401BB163213B48FFF70BFFAB1D06EB8303596805F1200247F822105B6813F0012F0BD1B8F5606F08D1B9F1000F05D04FF47842344B23F8152003E0002226
:401B0000314B23F81520726F02F11C7303F58033520093FBF2F31BB22C4A42F825300134E4B20F2CC7D9F36DC7F81832F36DC7F81032336EC7F82832336EC7F82032736E77
:401B4000C7F83832736EC7F8303296F87030DBB1B36EB3F1804F03D382211748FFF7C2FEF36E23F44F0323F0FF031BB183211248FFF7B8FE6FF04043C7F80433B36EC7F851
:401B80000033F36EC7F84433D7F8003F3F2B02D0D7F8003F13B90B23C7F8003F336843F400133B600020BDE8F8830948BDE8F8830748BDE8F88300BFC83608100811DF009E
:401BC00001FE302088CA887E744C0208944C02080100060038B50D46044618B9B5211748FFF780FE2CB30023236063604FF0031222616261A361E361236206E003F12002D4
:401C0000002144F822100133DBB20F2BF6D90023C4F81832C4F82832C4F838325DB16FF04043C4F804330020C4F84003C4F8440338BD034838BD002038BD00BFC8360810C2
:401C40000100060008B50368002B0ADBD0F8A032002BFBDB036843F0004303600220FFF735FE08BD38B505460C46012904D940F271110648FFF736FE012C04D16B6843F46D
:401C800080336B6038BD01236B6238BDC836081038B504460D46012904D94FF4F0711148FFF720FED4F8103203F00103012D06D00AE0D4F8103203F00103013A00E00A4AAC
:401CC0001BB9002AF5D100E0074A33B10123C4F81032D4F81032002038BD0AB9034838BD034838BDC836081055555501020006000300060038B505460C460F2904D940F28B
:401D00007B210648FFF7EEFD0F2C04D8603455F8240080B200E0002000B238BDC836081038B504461D4B1A68916892F8703003F0010343F08043C1F800340369FF2B0AD837
:401D40009168B2F874200A44516821F47F411B029BB20B435360114B1A68906892F87310032303FA01F592F8703092F8721003FA01F1294303F001030B4343F00043C0F8E5
:401D800000349368D3F80034054D00212846FFF721FFA1682846FFF71DFE38BD704C020800001D4108B5074B5B6813F4802F04D001210448FFF756FF08BD00210148FFF723
:401DC00051FF08BD00001D4108B501460348FFF75FFF08B1002008BD012008BD00001D4108B5084B1B7963B907490848FFF71CFD044B5B792BB90122024B5A710448FFF7F8
:401E00008FFF08BD604B0208411E0810003308104037081008B5084B1B7913F0010F06D1FFF7DEFF044A137943F0010313710348FFF708FF08BD00BF604B020800001D4174
:401E400010B5094BD3F81042072C04D940F231610648FFF747FD044BC3F81042D3F81022D3F8103210BD00BF00001D410437081002440346934202D003F8011BFAE7704748
:401E80000FB40A4B13B51C6824B1A36913B9204600F0EAF805AB049AA1680193204600F055FB02B0BDE8104004B070470C4302080EB400B59CB04FF402711DABADF81410D3
:401EC000029006906FF000410A48049107914FF6FF7153F8042BADF816100068019302A900F016FA029B00221A701CB05DF804EB03B070470C43020810B50C46B1F90E10FF
:401F000000F0DCFD0028ABBF636DA3891B1823F48053ACBF6365A38110BD2DE9F0411F468B89DB0505460C46164605D502230022B1F90E1000F022F9A389B4F90E1023F46E
:401F40008053A38132463B462846BDE8F04100F029B810B50C46B1F90E1000F00FF9431CA38915BF606523F4805343F48053A38118BFA38110BDB1F90E1000F025B810B527
:401F8000034642B111F8014B03F8014B013A002CF7D11A4400E010BD934202D003F8014BFAE710BD38B5074C054608461146002222601A4601F0CAF8431C02D1236803B11B
:401FC0002B6038BDD44C020838B5064C002305460846236001F084F8431C02D1236803B12B6038BDD44C0208014900F0A9B800BF952D0810002310B50446036043608360E2
:4020000081814366C281036143618361194608225C30FFF72DFF054B6362054BA362054BE362054B2462236310BD00BFF91E08101B1F0810531F0810771F081070B568233F
:402040004D1E5D430E4605F1740100F0A9F8044640B1002180E842000C30A06005F16802FFF706FF204670BD836910B5044633BB8364C3640365124B124A1B68826298427C
:4020800004BF0123836100F01FF86060204600F01BF8A060204600F017F80022E06004216068FFF7A7FF01220921A068FFF7A2FF02221221E068FFF79DFF0123A36110BDC3
:4020C000D0370810E91F0810F8B51C4B1E68B369074613B93046FFF7C7FF4836B4687368013B04D4B4F90C507DB16834F8E733680BB13668F2E704213846FFF79FFF3060D0
:402100000028F6D10C233B60F8BD4FF6FF73E3810123A38165662560A560656025616561A5610822294604F15C00FFF7A1FE6563A563A564E5642046F8BD00BFD0370810C8
:402140002DE9F8438046894600F14804002694B1A5686768013F0CD4AB89012B07D9B5F90E30013303D029464046C84706436835F0E72468EBE73046BDE8F88338B5074CAD
:40218000054608461146002222601A4600F0C0FF431C02D1236803B12B6038BDD44C020870B5CD1C25F0030508350C2D38BF0C25002D064601DBA94202D90C23336046E095
:4021C00000F0ECFE234B1C681A462146A1B10B685B1B0ED40B2B03D90B60CC18CD501EE08C420DBF63684B686360136018BF0C4615E00C464968E9E7174C23681BB930463C
:4022000000F06EFC20602946304600F069FC431C18D0C41C24F00304A0420DD12560304600F0BDFE04F10B00231D20F00700C31A0ED05A42E25070BD211A304600F050FCE8
:402240000130EBD10C233360304600F0A8FE002070BD00BF6C4B0208684B02082DE9F0478E689E4282460C46914698463ED88A8912F4906F3AD0256809696F1A6569022374
:4022800005EB450595FBF3F57B1C43449D4238BF1D4653050FD52946FFF782FF064698B13A46216900F054FEA38923F4906343F08003A38113E02A4600F0C0FE064670B97C
:4022C0002169504600F06CFE0C23CAF80030A38943F04003A3814FF0FF30BDE8F087266165613E44ED1B2660A5604646464528BF464632464946206800F035FEA3689B1B94
:40230000A36023681E4426600020BDE8F08700002DE9F04F9DB0804603938B891C060D4616460DD50B695BB94021FFF739FF2860286118B90C23C8F80030CDE040236B6132
:402340000023099320238DF82930DFF89CB130238DF82A3037463C4614F8013B1BB9B7EB060910D003E0252BF9D02746F3E74B46324629464046FFF771FF013000F0A7808C
:40238000099B4B4409933B78002B00F0A08000234FF0FF3204930793059206938DF853301A930126052221784E4800F081FD671C049B38B14B4A801A06FA00F018430490B3
:4023C0003C46EFE7D90644BF20228DF853201A0744BF2B228DF8532022782A2A03D0079A00210A200BE0039A111D12680391002A10DA524243F00200079204900BE027462D
:4024000001343B78303B092B03D800FB02320121F5E701B107923B782E2B1ED17B782A2B0AD1039B1A1D1B680392002BB8BF4FF0FF330237059310E000230593781C194635
:402440000A24074601303A78303A092A03D804FB01210123F5E703B1059103223978224800F026FD40B14023CBEB000003FA00F0049B18430490013739781C488DF8281039
:4024800006227E1C00F014FD88B1194B33B9039B073323F007030833039314E003AB00932A46144B04A94046AFF3008007E003AB00932A460F4B04A9404600F0D9F9B0F129
:4024C000FF3F824603D0099B5344099342E7AB895B0601D4099801E04FF0FF301DB0BDE8F08F00BF343808103A3808103E380810000000005D2208109368013B002B10B4A0
:40250000936009DA9469A34202DBCBB20A2B03D15DF8044B00F0F4BA1368581C10601970C8B25DF8044B7047F8B506460F461446D518AC4208D03A4614F8011B3046FFF712
:40254000DBFF431CF5D100E00020F8BD2DE9F04F9DB00C4617460393064618B183690BB9FFF782FD7F4B9C4201D1746808E07E4B9C4201D1B46803E07C4B9C4208BFF46808
:40258000A38918070CD5236953B10023099320238DF8293030238DF82A30DFF8D4B144E02146304600F000FB0028EED04FF0FF30D5E0039A111D12680391002A80F28C807B
:4025C000524243F002000792049098F800302E2B00F08480032298F80010654800F068FC48B14023CBEB000003FA00F0049B1843049008F1010898F800105E488DF8281080
:40260000062208F1010700F053FC002800F09580594B002B40F08880039B073323F0070308330393099B53440993B846454615F8013B1BB9B8EB07090FD003E0252BF9D02D
:40264000A846F3E74B463A4621463046FFF76CFF01307FD0099B4B44099398F80030002B78D000234FF0FF3204930793059206938DF853301A930127052229783F4800F0B1
:4026800017FC05F10108049B38B13C4A801A07FA00F0184304904546EEE7D90644BF20228DF853201A0744BF2B228DF853202A782A2A3FF47EAF079A00210A20A846013535
:4026C00098F80030303B092B03D800FB02320121F4E700293FF479AF079276E798F801302A2B0BD1039B1A1D1B680392002BB8BF4FF0FF3308F1020805936BE70023059360
:4027000008F1010019460A258046013098F80020303A092A03D805FB01210123F4E7002B3FF458AF059155E703AB00932246144B04A93046AFF3008007E003AB00932246BD
:402740000F4B04A9304600F093F8B0F1FF3F82467FF468AFA3895B063FF528AF09981DB0BDE8F08FD4370810F4370810143808103A3808103E3808100000000034380810A0
:40278000292508102DE9F04791461F460A698B68DDF820809342B8BF1346C9F8003091F8432006460C4612B10133C9F800302368990642BFD9F800300233C9F80030256868
:4027C00015F0060510D104F1190A07E00123524639463046C04701301AD00135E368D9F800209B1A9D42F1DB94F843302268003318BF012392060FD5E1185A1C302081F8D9
:402800004300224494F8451082F84310023303E04FF0FF30BDE8F08704F1430239463046C0470130F4D02268D9F80050E36802F00602042A08BF5D1B2269A3680CBF25EAA7
:40284000E57500259342C4BF9B1AED184FF000091A344D4509D00123224639463046C0470130D5D009F10109F3E70020BDE8F0872DE9F04317460A7E85B06E2A9846064629
:402880000C460C9B01F1430E00F0AE8011D8632A22D009D8002A00F0BB80582A40F0CA8081F84520834955E0642A1ED0692A1CD0C0E0732A00F0B08009D86F2A2ED0702ADB
:4028C00040F0B8800A6842F020020A603EE0752A24D0782A3AD0ADE01A6801F14205111D1960136884F84230A8E021681A6811F0800F02D0111D196008E011F0400F02F1C4
:402900000401196002D0B2F9003000E01368002B3CDA2D225B4284F8432037E021681A6811F0800F02D0111D196007E011F0400F02F10401196001D0138800E01368227ECB
:402940005C496F2A14BF0A2208221BE078225A4984F845202268186812F0800F00F104051D6003D1550601D5038800E00368D00744BF42F0200222601BB9226822F02002A8
:4029800022601022002084F8430001E049490A226568A560002D08DB206820F0040020602BB9002D7DD175460CE0002B79D07546B3FBF2F002FB1033CB5C05F8013D034637
:4029C0000028F5D1082A0BD12368DA0708D5236962689A42DEBF302305F8013C05F1FF35C5EB0E0323612EE008681A68496910F0800F03D0101D1860136808E010F0400F5C
:402A000002F104001860136801D0198000E0196000232361754616E01A68111D1960156862680021284600F043FA08B1401B6060636804E004F1420584F842200123236120
:402A4000002384F84330CDF800803B4603AA21463046FFF797FE013002D14FF0FF3026E023692A4639463046C0470130F5D023689B0710D5002504F1190907E001234A461A
:402A800039463046C0470130E7D00135E368039A9B1A9D42F2DBE068039B9842B8BF184605E00B7884F8423004F142058AE705B0BDE8F083453808105638081038B5074CD3
:402AC000054608461146002222601A4600F028FB431C02D1236803B12B6038BDD44C020838B5064C002305460846236000F020FB431C02D1236803B12B6038BDD44C020810
:402B0000F8B50F461446064618B183690BB9FFF7ABFA224B9C4201D1746808E0204B9C4201D1B46803E01F4B9C4208BFF468A369A360A3891A0709D523693BB123682069AD
:402B4000181A63699842FDB20FDB08E02146304600F02AF80028F1D04FF0FF30F8BD2146304600F017F90028F6D1A368013BA36023685A1C22601F706269431C934204D006
:402B8000A389DB0707D50A2D05D12146304600F001F90028E0D12846F8BD00BFD4370810F437081014380810324B70B51D6806460C4625B1AB6913B92846FFF755FA2E4B2B
:402BC0009C4201D16C6808E02C4B9C4201D1AC6803E02B4B9C4208BFEC68B4F90C309AB215071DD4D00602D4092232603AE0510712D5616B41B104F14403994202D03046BB
:402C000000F0CEF900236363A38923F02403A3810023636023692360A38943F00803A38123694BB9A38903F42073B3F5007F03D02146304600F0FCF8A28912F0010305D0E0
:402C40000023A36063695B42A36103E0920758BF6369A36023695BB9B4F90C3003F0800080B230B143F04003A3814FF0FF3070BD002070BD0C430208D4370810F43708100F
:402C8000143808108A892DE9F041054610070C4659D44B68002B02DC0B6C002B17DDE66AAEB102F48052002392B22F682B600AB1606D15E0216A01232846B047411C0FD155
:402CC0002B686BB11D2B01D0162B03D12F600020BDE8F081A38943F04003A381BDE8F081A3895A0705D56368C01A636B0BB1236CC01A00230246E66A216A2846B047431C4D
:402D0000A38906D129681D293AD8214ACA40D60736D500226260D9042269226004D5421C01D12B6803B96065616B2F600029CED004F14403994202D0284600F031F90020AC
:402D40006063BDE8F0810F69002FC0D093070E6808BF4B690F6018BF0023C7EB06088B6002E00744C0EB0808B8F1000FAFDD43463A46216AA66A2846B0470028F1DCA3894E
:402D800043F04003A3814FF0FF30BDE8F08100BF0100402038B50B6905460C46DBB118B183690BB9FFF760F90C4B9C4201D16C6808E00B4B9C4201D1AC6803E0094B9C4291
:402DC00008BFEC68B4F90C302BB121462846BDE83840FFF757BF002038BD00BFD4370810F43708101438081070B50E46B1F90E10002990B014461D4606DA00232B60B38926
:402E00001A060ED540230EE001AA00F03DF90028F3DB029A02F47042A2F500535A425A412A604FF480630020236010B070BD00008B8973B59E0705460C4610D401AB6A4614
:402E4000FFF7D2FF009906462846FFF7A9F968B9B4F90C309A0522D443F00203A38104F14703236023610123636118E00D4BAB62A389206043F08003A381009B6361019B99
:402E800020614BB1B4F90E10284600F00FF918B1A38943F00103A381A0893043A08102B070BD00BFE91F0810000000000000000001F0FF01102A2BDB10F0070F08D010F872
:402EC000013B013A8B422DD010F0070F42B3F6D1F0B441EA012141EA014122F007047FF000070023F0E80256083C85EA010586EA010685FA47F5A3FA87F586FA47F6A5FA1B
:402F000087F68EB9EED1F0BC01F0FF0102F0070232B110F8013B013A83EA010313B1F8D10020704701387047002D06BF35460338073815F0010F07D1013015F4807F02BF81
:402F4000013015F4C03F0130F0BC0138704700BF10B5431E0A44914204D011F8014B03F8014FF8E710BD884210B501EB020301D8421E0BE09842FBD28118D21AD34204D06C
:402F800013F8014D01F8014DF8E710BD994204D011F8014B02F8014FF8E710BD7047704738B50546002946D051F8043C0C1F002BB8BFE418FFF7F2FF1F4A1368114613B9A6
:402FC0006360146032E0A3420ED92268A018834204BF18685B68636004BF121822600C6024E0A24203D813465A68002AF9D118681918A1420BD12168014458188242196054
:4030000014D1106852685A60014419600EE002D90C232B600AE021686018824204BF10685268626004BF091821605C602846BDE83840FFF7B4BF38BD6C4B0208F8B5074653
:4030400015460E4621B91146BDE8F840FFF7A8B81AB9FFF7A5FF2846F8BD00F037F885420ED929463846FFF79BF8044650B131462A46FFF76DFF31463846FFF791FF01E07A
:403080003046F8BD2046F8BD38B5074C0023054608461146236000F02BF8431C02D1236803B12B6038BD00BFD44C020838B5064C002305460846236000F022F8431C02D14D
:4030C000236803B12B6038BDD44C020851F8040C0028BEBF091851F8043CC01804387047024B58221A604FF0FF307047D44C0208024B58221A604FF0FF307047D44C020854
:40310000024B58221A600020704700BFD44C0208024B58221A604FF0FF307047D44C0208024B58221A604FF0FF307047D44C0208044A05491368002B08BF0B461844106048
:4031400018467047704B0208D84C0208024B58221A604FF0FF307047D44C0208F8B500BFF8BC08BC9E467047F8B500BFF8BC08BC9E467047252A732025730000252A73205D
:4031800025780000252A7320256420256400000047726F757020496E6469613A204C6F6164696E6700000000526561647920666F72205069632E2E2E000000004163717588
:4031C0006972696E67205069632E2E2E0000000047656E6572617465645F536F757263655C50536F43362F4144435F312E68000025640000257320002000000065200000A7
:40320000446F6E650000000068656C700000000073686F772068656C70206D657373616765000000636C656172000000436C656172204C43440000007772697465000000C4
:403240005772697465206461746120746F204C43440000007072696E74000000577269746520737472696E6720746F204C43440064647200536574204444522041646472B3
:4032800065737300636700005365742043472052414D20416464726573730000636F6D6D616E640073656E6420696E737472756374696F6E00000000706F7300706F73200E
:4032C0006C696E6520636F6C000000000300000001000000010000000000000005036000040000000100000000000000010000000604600008000000C84A0208A507081003
:403300008A000000070000002E00000007000000000000000C0000000800000000020000000000000000000000000000000000000000000000000000000000000B000000A6
:403340000000000004000000000000000000000047656E6572617465645F536F757263655C50536F43365C70646C5C647269766572732F7065726970686572616C2F6970A9
:40338000632F63795F6970635F6472762E68000047656E6572617465645F536F757263655C50536F43365C70646C5C647269766572735C7065726970686572616C5C6970C9
:4033C000635C63795F6970635F6472762E68000047656E6572617465645F536F757263655C50536F43365C70646C5C647269766572735C7065726970686572616C5C69705C
:40340000635C63795F6970635F6472762E63000047656E6572617465645F536F757263655C50536F43365C70646C5C647269766572735C7065726970686572616C5C697020
:40344000635C63795F6970635F706970652E630047656E6572617465645F536F757263655C50536F43365C70646C5C647269766572735C7065726970686572616C5C736381
:40348000625C63795F7363625F756172742E680047656E6572617465645F536F757263655C50536F43365C70646C5C647269766572735C7065726970686572616C5C736333
:4034C000625C63795F7363625F636F6D6D6F6E2E6800000047656E6572617465645F536F757263655C50536F43365C70646C5C647269766572735C706572697068657261C4
:403500006C5C7363625C63795F7363625F756172742E630047656E6572617465645F536F757263655C50536F43365C70646C5C647269766572735C706572697068657261B7
:403540006C5C737973696E745C63795F737973696E742E63000000000000204000002440000000400000000000002340000030400000314000009F4000002240000010402E
:4035800002020202020202020210101D800017007500FF030602063604102000000000007FC0000000040000000000000019324B647D00804000080B100000000000FF0199
:4035C0002002001F00800004FF081018001000140018001C4044484C50000000081000000800000004000000041000000012000004210000002100000016000040114002DE
:40360000C41300138013A013200000001C0000000000214000002540000001400000344000002440000031400000324000001F410000234000001140010101010101010140
:4036400001101010800019005500F0000501053B04101C01010000000FC000000004000001010101011D3A57789600082000101208000000001F00000010000F002000027D
:403680003F06080E00080009000A000B24282C3034000000100000009000000088000000080000008000000004F0000000F00000400200002005A000D00100018001A0011E
:4036C000200000001000000047656E6572617465645F536F757263655C50536F43365C70646C5C647269766572735C7065726970686572616C5C7361725C63795F73617256
:403700002E63000047656E6572617465645F536F757263655C50536F43365C70646C5C647269766572732F7065726970686572616C2F7361722F63795F7361722E680000A5
:40374000000000000100000054370810000000000200000072CE2053FC00009004000200020002000002000E03000000010000000004000000000000000000000000000042
:403780000000000000000000000000000000000000000000000000000000000000000000000000000000000000000000000000000100000000000000000000000000000008
:4037C0000000000000000000E40C000043000000AC42020800000000000000000000000000000000000000000000000000000000000000000000000000000000000000009E
:4038000000000000000000000000000000000000000000000000000000000000000000000000000000000000000000000000000000000000232D302B2000686C4C006566D2
:40384000674546470030313233343536373839414243444546003031323334353637383961626364656600000000000000000810004002088C0200008C3808108C42020867
:403880002C0600004C4902088C0300000048E80100127A0000093D0000127A0000127A0008000000401F00000000A00F00000000D4370810F43708101438081000000000AD
:4038C000000000000000000000000000CC370810000000000000000000000000000000000000000000000000000000000000000000000000000000000000000000000000AD
:40390000000000000000000000000000AC420208B10208108D0208100000000080B2C10050B3164B1B681A6AB3F8B030C3EBC303D358002BF5DA3E22114B1A6041F61E729E
:4039400004331A60A3F584730622C3F8182521F07F41C3F81C15D3F81C35084B1A68116AB2F8B030C3EBC3030B4400225A60054BD3F81C35002BFADA704700BF704C0208EE
:403980000401264000002640F8B5274B1B6893F83130052B04D840F2C311244800F064FA214F3A68166AB2F8B03003EB83031E4452684FF26003D458A4B200F04DFA054688
:4039C0003B681968D3F890208A58013C032C27D8032A0CD1164A127812F0FF0F07D10822B2601968D3F890208A58032AF9D01968D3F884208B588858C0F307221B0E581CC3
:403A000002FB00000B4B03FB00F00B4B1B680B4AA2FB03239B09B0FBF3F08230FFF77EFF284600F009FAF8BD704C0208503308100B00001640420F0090420208D34D621066
:403A40004378FF2B23D110B500F006FA0446104B1B6893F83130042B04D840F2C3110D4800F002FA0A4B1A68136AB2F8B02003EB8203DB685A68136843F00103136013686C
:403A800013F0010FFBD1204600F0D6F910BD7047704C0208503308102DE9F04707468846554B1B6893F83130012B04D840F2C311524800F0D9F9504B1B681C6AB3F8B0201D
:403AC0001444D3F8B420161993F85030002B79D04B4B1B7813F0FF0F02D04FF0000901E04FF00109B9F1000F38D0434B1B6893F83130052B04D840F2C311404800F0B4F9AE
:403B00003D4B1A68116AB2F8B03003EB83030B44D2F8B420D358002B22DB002000F0BCF9384B98421ED00023374A12690121184600F0BAF918B1354D17E0013500E00025F3
:403B4000002000F0A9F92F4B984202D0304B9D42F3D92F4B9D4207D92C4D06E0002504E02A4D02E0294D00E00025002D41D100F073F98246274BD3F81C35002B10DA224A60
:403B80000121204600F080F960B94046FFF7C6FE57B13368002BFCDB00F056F9054604E01A4D02E0194D00E01B4DB9F1000F05D00121002000F060F90028F9D1504600F020
:403BC0003BF916E000F048F980460F4A0121204600F05AF938B947B13368002BFCDB00F033F9054602E0094D00E00B4D404600F023F92846BDE8F087704C020850330810A6
:403C00000B00001601018800FC4A020805005200EF4902000000264001005000F0B47F4B1A6855684FF0B0535B7813F0FF0F04D04FF0B0535B78DBB200E02123212B55D162
:403C4000116AB2F8B030C3EBC303CC18CB58002BF6DAE36843F00103E360146AB2F8B030C3EBC3031C44E36813F0020F2DD0E3689EB21368D2F884105958090A090401F492
:403C80007F01D2F88870DB591B0A41EA03633343E3601168D2F884208B5823F47F4343F410638B505D4A13681C68D3F88810635823F47F4343F41063635013681A68D3F835
:403CC00084105158D3F88830D358544B1A68116AB2F8B030C3EBC3030B4400215960116AB2F8B030C3EBC3030B445B684B4B19680C68D1F894301C44494A136943F00403CA
:403D00001361012801D030BF07E020BF454B1B7803B120BF0122434B1A70236803F00303022BE9D00A6AB1F8B030C3EBC303D018D358002BF6DA4FF0B0535B7813F0FF0F60
:403D400004D04FF0B0535B78DBB200E02123212B30D1C36813F0020F1FD00C68D1F88410635823F47F42C3681B0C1B0203F47F4313436350294B19680C68D1F88800235864
:403D800023F47F420D6AB1F8B030C3EBC3032B44DB681B0E42EA03232350204B1A68136AB2F8B020C2EBC2021344DA6822F00102DA6026E0D5F80C311BBB1B490E681B4BB4
:403DC000D3F818451A4A106841F61E770F600621C3F818153E2111604422C3F81C25134BD3F81C35002BFADA4FF0AA33C5F80C310D4B1E60A3F58473C3F8184503F582734A
:403E00001860064B1A68116AB2F8B030C3EBC3030B4400225A60F0BC704700BF704C020800ED00E0244B02080801264000002640040126400000000001B40248844601BC9F
:403E4000604700BFC319081001B40248844601BC604700BF690D081001B40248844601BC604700BFBB19081001B40248844601BC604700BFE518081001B40248844601BC0F
:403E8000604700BF1510081001B40248844601BC604700BF910E081001B40248844601BC604700BF9D10081001B40248844601BC604700BF71120810000000000000000084
:403EC00000000000000000000000000000000000000000000000000000000000000000000000000000000000000000000000000000000000000000000000000000000000C2
:403F00000000000000000000000000000000000000000000000000000000000000000000000000000000000000000000000000000000000000000000000000000000000081
:403F40000000000000000000000000000000000000000000000000000000000000000000000000000000000000000000000000000000000000000000000000000000000041
:403F80000000000000000000000000000000000000000000000000000000000000000000000000000000000000000000000000000000000000000000000000000000000001
:403FC00000000000000000000000000000000000000000000000000000000000000000000000000000000000000000000000000000000000000000000000000000000000C1
:0200000490303A
:02000000BB390A
:0200000490501A
:0C0000000005E2F021002101E305DC39DD
:00000001FF